:020000021000EC
:10C0000000000120E5C4010019C501001BC50100A5
:10C010000000000000000000000000000000000020
:10C020000000000000000000000000001DC501002D
:10C0300000000000000000001FC5010021C5010034
:10C0400025C5010027C50100A9F401003DDC010060
:10C050004DDC01002FC5010009F3010033C50100CB
:10C0600051F9010065F9010075E101003BC50100CE
:10C070003DC501003FC5010041C5010043C50100A8
:10C0800045C5010099FE010049C501004BC50100ED
:10C0900069FF01004FC501008D08020053C5010072
:10C0A00055C5010057C501007DF9010095F9010052
:10C0B00091FB01005FC5010023C5010023C50100FC
:10C0C00061C5010063C5010065C5010067C50100C8
:08C0D00069C501006BC5010008
:10C0D8009E4B1B78062B1AD09D4AD2F8883043F421
:10C0E8007003C2F88830BFF34F8FBFF36F8F4FF0E4
:10C0F8001023D3F80022002AC0F2F880D3F80432C3
:10C10800002BC0F2F380934B934A1A607047934B0D
:10C118001B681B07E0D1924B1B6803F0F003302B20
:10C1280000F0BA80402B00F0C280502B00F0D08085
:10C138008B4B1B6803F0F003302B00F09780884B83
:10C148001B6803F0F003302B70D0402B7ED0502BAF
:10C1580000F0C580824B1B6803F0F003302B52D0EF
:10C168007F4B1B6803F0F003502BB5D17D4B1B6848
:10C1780013F0F00FB0D14FF080527B4BD2F804147B
:10C18800C3F82015D2F80814C3F82415D2F80C14F3
:10C19800C3F82815D2F81014C3F82C15D2F81414C3
:10C1A800C3F83015D2F81814C3F83415D2F81C1493
:10C1B800C3F84015D2F82014C3F84415D2F8241453
:10C1C800C3F84815D2F82814C3F84C15D2F82C1423
:10C1D800C3F85015D2F83014C3F85415D2F83414F3
:10C1E800C3F86015D2F83814C3F86415D2F83C14B3
:10C1F800C3F86815D2F84014C3F86C15D2F8442473
:10C20800C3F8702568E7574B1B6813F0F00FA7D1E8
:10C218004E4B564A1B780321062B11607FF45CAF06
:10C228004E4B1B681B077FF457AF99E74D4B1B68B4
:10C2380013F0F00F10D0454B1B78062B7FF44CAF52
:10C24800464B1B681A077FF447AF83E7454B1B68CB
:10C2580013F0F00F7FF47EAF4FF080430022C3F855
:10C268000C21C3F81021C3F83825E4E73D4B1B68BF
:10C2780013F0F00F7FF463AF3D4A3449D36809786F
:10C2880023F080730629D3607FF426AF334B1B68F5
:10C2980019077FF421AF52E7324B1B6813F0F00FF8
:10C2A8000BD02E4B1B6818077FF416AF40E72D4BB9
:10C2B8001B6813F0F00F7FF43BAF2E4B234A1B682B
:10C2C80012782D49C3F34233062A0B60E9D0B2E74E
:10C2D800244B1B6813F0F00F7FF42AAFEDE7214BD6
:10C2E8001B6813F0F00F7FF435AFB5E7234B01223D
:10C2F800C3F80425D3F80024002AFBD04FF01023FC
:10C3080015221E49C3F80022D1F80034002BFBD0B7
:10C318004FF0102315221949C3F80422D1F800243C
:10C32800164B002AFAD00022C3F80425D3F80024BB
:10C33800002AFBD0BFF34F8F0549114BCA6802F49E
:10C34800E0621343CB60BFF34F8FFEE7E00F00F0CE
:10C3580000ED00E0582000200090D003E40F00F02A
:10C36800E80F00F0EC0F00F000C00040A00500400E
:10C37800F0ED00E0440200103C05004000E0014000
:10C388000400FA05354936480A1A02D007229143B3
:10C398008D46344934480A1A06D00722914381F35E
:10C3A8000988022282F3148830483149314A00F062
:10C3B80043F831483149324A00F03EF831483249B1
:10C3C800324A00F039F832483249334A00F034F83A
:10C3D80032483349334A00F02FF833483349344A56
:10C3E80000F02AF833483449344A00F025F8344834
:10C3F8003449002200F02BF833483449002200F079
:10C4080026F833483349091A082903DB0022026059
:10C41800043001601F482049884205D00268043072
:10C4280003B4904703BCF7E700208646EC4600209B
:10C438000021294A9047FEE7884207D0521A05D0C2
:10C44800037801300B700131013AF9D17047884205
:10C4580002D002700130FAE77047000000000120A6
:10C4680000F80020000001200000012084170200CD
:10C47800E81F00205C2000206CC501006CC501008D
:10C48800A011020084170200E81F0020E81F002006
:10C49800A0110200A0110200A0110200A0110200C8
:10C4A800A0110200A0110200A0110200A0110200B8
:10C4B80084170200F81702005C2000205C2000208E
:10C4C8005C200020E02D0020E02D0020E02D002041
:10C4D800E02D0020E02E002099CC010008480949F1
:10C4E80088438546084880470848016841F4700138
:10C4F8000160BFF34F8FBFF36F8FFFF743BF00009B
:10C508000000012007000000D9C0010088ED00E00C
:10C51800FEE7FEE7FEE7FEE7FEE7FEE7FEE7FEE7EB
:10C52800FEE7FEE7FEE7FEE7FEE7FEE7FEE7FEE7DB
:10C53800FEE7FEE7FEE7FEE7FEE7FEE7FEE7FEE7CB
:10C54800FEE7FEE7FEE7FEE7FEE7FEE7FEE7FEE7BB
:10C55800FEE7FEE7FEE7FEE7FEE7FEE7FEE7FEE7AB
:04C56800FEE7FEE705
:10C56C0070DF704771DF704773DF704776DF70479D
:10C57C007ADF70477CDF70477FDF7047A9DF704739
:10C58C0048DF7047704700BF4FF4BA71014A03F09F
:10C59C006DBB00BFA411020000B587B0182268461D
:10C5AC00002104F075FD0023402268468DF8003010
:10C5BC0001938DF80830ADF81230ADF81020FFF76C
:10C5CC00D3FF20B14FF4D071054A03F04FFB4FF06D
:10C5DC00A0434FF48022C3F80C2507B05DF804FB90
:10C5EC00A411020008B5037803B108BD064B3B212A
:10C5FC001888FFF7BBFF0028F7D040F26911034AF7
:10C60C00BDE8084003F032BBF01F0020A41102006B
:10C61C000388112B10B5044637D024D9132B13D013
:10C62C00522B08D12C4B002118880A460B46FFF7D9
:10C63C00A5FF00284AD1204602F02EFC21462748AF
:10C64C00BDE8104001F00CBB234B0022188885215B
:10C65C001346FFF791FF0028EDD04FF4F471204AF8
:10C66C0003F004FBE7E7102BE5D14FF0A0424FF4A9
:10C67C000031194BC2F80C1582881A8003F0C6FAE7
:10C68C00F0B9184B01221A70D5E74FF0A0424FF4C5
:10C69C000031114BC2F808154FF6FF721A8003F0E7
:10C6AC00CBFA38B90F4B00221A70FFF775FF00F068
:10C6BC00E5FCC0E740F2DB11094A03F0D7FAF1E7D9
:10C6CC0040F2D111064A03F0D1FADAE74FF4F771D0
:10C6DC00034A03F0CBFAAEE7F01F002060200020E5
:10C6EC00A41102005D20002000B5FA2885B020D0EE
:10C6FC001E4B0128187035D036D3022813D064286D
:10C70C0004D11B4B00930022019302929DED000A71
:10C71C00DDED010A9DED021ADDED031A01F0E4FDD9
:10C72C0005B05DF804FB0023114A009301930292BB
:10C73C00ECE7104B1A7852B10C4A00211170002210
:10C74C000B4800920121029201901970DEE7074A12
:10C75C0001211170064900910022002101920292E0
:10C76C001970D3E7034BF5E7024BE8E72C220020C6
:10C77C0000007A447D20002070B40246460000235D
:10C78C004FF0A04408214CF24F35C4F80815104660
:10C79C00013800BF00BF00BF00BF00BF00BF00BF1B
:10C7AC0000BF00BF00BF00BF00BF00BF00BF00BF85
:10C7BC0000BF00BF00BF00BF00BF00BF00BF00BF75
:10C7CC0000BF00BF00BF00BF00BF00BF00BF00BF65
:10C7DC0000BF00BF00BF00BF00BF00BF00BF00BF55
:10C7EC0000BF00BF00BF00BF00BF00BF00BF00BF45
:10C7FC0000BF00BF00BF00BF00BF00BF00BF00BF35
:10C80C0000BF00BF00BFC3D1C4F80C1510460138DF
:10C81C0000BF00BF00BF00BF00BF00BF00BF00BF14
:10C82C0000BF00BF00BF00BF00BF00BF00BF00BF04
:10C83C0000BF00BF00BF00BF00BF00BF00BF00BFF4
:10C84C0000BF00BF00BF00BF00BF00BF00BF00BFE4
:10C85C0000BF00BF00BF00BF00BF00BF00BF00BFD4
:10C86C0000BF00BF00BF00BF00BF00BF00BF00BFC4
:10C87C0000BF00BF00BF00BF00BF00BF00BF00BFB4
:10C88C0000BF00BFC3D13344AB427FF67EAF70BC58
:10C89C00704700BFF8B52F4C2F4823782D4F2F4EE3
:10C8AC00072B88BF00234FF0000188BF237003F0D3
:10C8BC003DF8237805468BB93268821AB2F5FA6FC7
:10C8CC0008D927485F1E01780122BA400A44072B79
:10C8DC00027011D0013323703560F8BD32682149E4
:10C8EC000020AA1A04F0A6FB3368EB1AB3F5FA6F12
:10C8FC003B78E6D8072BEDD1194F1B493A7800202D
:10C90C0004F098FB194A137803BB012313701849E0
:10C91C003B780978994212D0013B0F2B0FD8117834
:10C92C001448002201F0ACFA40F2EC50FFF724FF5F
:10C93C00322002F00BFB40F24760FFF71DFF23781B
:10C94C003560002201333A702370F8BD0133137047
:10C95C00DDE700BF09220020E81F00208020002016
:10C96C005C200020281202003012020084200020DB
:10C97C000822002060200020102800D0704738B515
:10C98C001D4D1E482978042201F07AFA2A781C4B96
:10C99C00A3FB02131B0903EB8303A2EB830313F02A
:10C9AC00FF0403D000F030FB287038BD4FF48660D4
:10C9BC00FFF7E2FE0220FFF797FE0A2002F0C6FA0C
:10C9CC004FF47D70FFF7D8FE0120FFF78DFE0A2093
:10C9DC0002F0BCFA40F2BB30FFF7CEFE0220FFF7AC
:10C9EC0083FE0A2002F0B2FA40F28530FFF7C4FE53
:10C9FC002046FFF779FED5E77C2000206020002040
:10CA0C00CDCCCCCC10B508460C4600F029FD052148
:10CA1C00204600F05BFDFFF767FE20460121002257
:10CA2C0000F04CFDA8B901210A46204600F046FD55
:10CA3C004FF0A0434FF4805240B9C3F80C25E07C72
:10CA4C0001F040FA0A4BE27C1A7010BDC3F80825BD
:10CA5C00F5E7204601F03CFA4FF40670FFF78CFE28
:10CA6C00322002F073FA4FF40670FFF785FEDAE716
:10CA7C000822002030B5164B9FB09B7C8DF80630F9
:10CA8C00002141F22353382202A8ADF804300124CE
:10CA9C0004F0FEFA02250623002110A838228DF896
:10CAAC000B308DF808508DF80A4004F0F1FA01AB08
:10CABC0002A810A9ADF85040159302F0F1F820B17E
:10CACC004FF49071034A03F0D1F81FB030BD00BF92
:10CADC0060200020A411020038B5114C2378A3B9B2
:10CAEC00104D2B78DA0717D5FFF7C4FF2B780133DD
:10CAFC00DBB22B70DB0708D4237833B94FF0A0439B
:10CB0C004FF48022C3F80C2538BD4FF0A0434FF4EE
:10CB1C008022C3F8082538BD00F0E8F9E6E700BF2D
:10CB2C005D2000208520002030B583B002F0BCFAD7
:10CB3C00E0B12CB120464FF421710E4A03F096F867
:10CB4C000023012401A90C4A8DF80630032510207E
:10CB5C008DF807308DF804508DF8054002F0AEFAD0
:10CB6C002146102002F02AFB03B030BD02F062FA1D
:10CB7C000446DEE7A411020085C9010008B5064A87
:10CB8C000648012103F0A2FC054842F2666100222E
:10CB9C00BDE8084003F0ACBCE5CA01004812020035
:10CBAC000C22002030B585B002210324002304257B
:10CBBC008DF804103148324A8DF8054002A98DF8E1
:10CBCC000A408DF80B408DF807308DF806308DF843
:10CBDC0009308DF8085002F037FE002847D101A922
:10CBEC000D20284A02F06AFA00283AD10E2001A939
:10CBFC00244A02F063FA70BB01A90F20214A02F00B
:10CC0C005DFA10BB1D4B1B680DF10300D3F84035CA
:10CC1C0002F0AEFD20B14FF431711B4A03F026F83F
:10CC2C000D2002F05DFB0D20012102F0C7FA0E2051
:10CC3C00012102F0C3FA01210F2002F0BFFA0F48C4
:10CC4C0002F066FE002005B030BD40F2BB210E4A5A
:10CC5C0003F00CF8D6E740F2B9210B4A03F006F8C2
:10CC6C00CAE740F2B721084A03F000F8BEE740F2E9
:10CC7C00B221054A02F0FAFFB1E700BFE81F00201D
:10CC8C0091C50100A1C80100A4110200F0B58BB040
:10CC9C00FFF74AFF4FF0A04303224FF480574FF4A5
:10CCAC0000364FF480254FF400244FF480100821F7
:10CCBC00C3F83027C3F80C75C3F84427C3F84827CA
:10CCCC00C3F84C27C3F85027C3F80865C3F80855B8
:10CCDC00C3F80845C3F80805C3F80C27C3F80C15AE
:10CCEC0002F03CFD20B140F2F721754A02F0BEFF84
:10CCFC0001F0A0FA002003460421724A03F084FBE1
:10CD0C0018B1E3216E4A02F0B1FF6F4B6F491868FE
:10CD1C00009048226846002303F064FD20B140F2E5
:10CD2C000D21674A02F0A2FF03AA0020012103F0A3
:10CD3C00C3FD20B140F21221614A02F097FF644812
:10CD4C0003F0D2FD20B140F215215D4A02F08EFFB6
:10CD5C0003A803F0EDFD20B140F21921584A02F06E
:10CD6C0085FF01A8FFF7FEFB20B140F21E21544ABB
:10CD7C0002F07CFF002001A9FFF7F2FB20B14FF479
:10CD8C0008714F4A02F072FF524803F06FFD20B158
:10CD9C004FF409714A4A02F069FF9DF804304E487D
:10CDAC00012262F3030362F307138DF8043004F0DD
:10CDBC00C1F9494982B201A8FFF7DCFB18B1F62191
:10CDCC003F4A02F053FF0021082203A804F060F947
:10CDDC001024282100224FF4C87303A8ADF80C408E
:10CDEC00ADF80E10ADF81020ADF81230FFF7C0FB07
:10CDFC0020B14FF48071324A02F038FF374B38487B
:10CE0C00039303A900F04EFF20B140F253112C4ABA
:10CE1C0002F02CFFFFF72EFE00211C2203A804F0C9
:10CE2C0037F94FF4202600234FF4203503242D49E5
:10CE3C002D4A039303A8ADF81A308DF81C300496D4
:10CE4C0005958DF818400891099201F0EBFF20B17F
:10CE5C0040F28B111A4A02F009FFFFF78FFEFFF721
:10CE6C009BFB00F037FA00F0F1F80B2001F098F87A
:10CE7C00FFF798FE20B140F21231114A02F0F6FE93
:10CE8C000020FFF731FC40F24760FFF775FC1E20D5
:10CE9C0002F05CF840F2EC50FFF76EFC1E2002F042
:10CEAC0055F840F29750FFF767FCFFF769FB002835
:10CEBC00FBD040F2E621024A02F0D8FEF5E700BFB3
:10CECC00A411020088200020A011020030220020B2
:10CEDC00E81F00201DC601003C12020011CA01000F
:10CEEC0060200020F1C5010095C5010030B5164A3F
:10CEFC00164B106893B0102400904FF6AA650021D1
:10CF0C00382204A8ADF80450ADF80840039304F09F
:10CF1C00BFF8002201230DEB0400062501AC1146DD
:10CF2C008DF81020CDF824D08DF81350ADF82030AA
:10CF3C008DF83C300E9401F0B3FE18B13721044A41
:10CF4C0002F094FE13B030BD4C120200F41F00200E
:10CF5C005012020070B5274C274D284A82B000268B
:10CF6C00242109232046009600F0BAFD032001F08D
:10CF7C00EDFF2A4624210723204600F00BFE032058
:10CF8C0001F0E4FF2A4624210E23204600F002FE85
:10CF9C00032001F0DBFF2421194A00960C232046C4
:10CFAC0000F09EFD032001F0D1FF2A462421072327
:10CFBC00204600F0EFFD032001F0C8FF2A46242193
:10CFCC000923204600F0E6FD032001F0BFFF2421D9
:10CFDC000C4A00960B23204600F082FD032001F042
:10CFEC00B5FF20462A462421072302B0BDE8704035
:10CFFC0000F0D0BDEC1202007822002004200020AA
:10D00C00102000201C20002008B54FF0A0434FF446
:10D01C008012C3F80C25FFF79DFF0B4B187848B115
:10D02C000130C0B218704FF0A0434FF48012C3F817
:10D03C00082508BD012018704FF0A0434FF4801252
:10D04C00C3F8082508BD00BF27200020094B30B5C8
:10D05C000FCB85B0084D8DE80F00002269461346B2
:10D06C00284600F099FB284600F02AFDFFF772FFD6
:10D07C0005B030BDDC120200EC12020070B5304B72
:10D08C0088B0186859689A68DB68002504AC0FC42E
:10D09C008DF809508DF80A508DF80B508DF80C5006
:10D0AC000DF10F040DF11F06009514F8013F8DF8DA
:10D0BC000830602102AA0523224800F011FD05204A
:10D0CC00013800BF00BF00BF00BF00BF00BF00BFE2
:10D0DC0000BF00BF00BF00BF00BF00BF00BF00BF4C
:10D0EC0000BF00BF00BF00BF00BF00BF00BF00BF3C
:10D0FC0000BF00BF00BF00BF00BF00BF00BF00BF2C
:10D10C0000BF00BF00BF00BF00BF00BF00BF00BF1B
:10D11C0000BF00BF00BF00BF00BF00BF00BF00BF0B
:10D12C0000BF00BF00BF00BF00BF00BF00BF00BFFB
:10D13C0000BF00BF00BFC3D1B442B5D108B070BDB1
:10D14C00F41202001C13020070B5604B86B0186814
:10D15C005968002404AB03C303AA00946021022382
:10D16C005B488DF80C408DF80D408DF8084000F0B0
:10D17C00B7FC0094602102AA0123554800F0B0FCD2
:10D18C0006AC4FF0A0424FF400210123C2F80C155D
:10D19C0004F80D3D6021224601234D4800F0FAFCB5
:10D1AC000520013800BF00BF00BF00BF00BF00BF9B
:10D1BC0000BF00BF00BF00BF00BF00BF00BF00BF6B
:10D1CC0000BF00BF00BF00BF00BF00BF00BF00BF5B
:10D1DC0000BF00BF00BF00BF00BF00BF00BF00BF4B
:10D1EC0000BF00BF00BF00BF00BF00BF00BF00BF3B
:10D1FC0000BF00BF00BF00BF00BF00BF00BF00BF2B
:10D20C0000BF00BF00BF00BF00BF00BF00BF00BF1A
:10D21C0000BF00BF00BF00BFC3D19DF80B30002B77
:10D22C00B8D14FF0A0424FF4002104AD1C46C2F817
:10D23C00081506AE02232A4600941D44244860219A
:10D24C0000F04EFCB542F5D11420013800BF00BFF0
:10D25C0000BF00BF00BF00BF00BF00BF00BF00BFCA
:10D26C0000BF00BF00BF00BF00BF00BF00BF00BFBA
:10D27C0000BF00BF00BF00BF00BF00BF00BF00BFAA
:10D28C0000BF00BF00BF00BF00BF00BF00BF00BF9A
:10D29C0000BF00BF00BF00BF00BF00BF00BF00BF8A
:10D2AC0000BF00BF00BF00BF00BF00BF00BF00BF7A
:10D2BC0000BF00BF00BF00BF00BF00BF00BF00BF6A
:10D2CC00C3D1FFF7DBFE06B070BD00BF0413020034
:10D2DC001C130200094B30B50FCB85B0084D8DE8FF
:10D2EC000F00002269461346284600F055FA2846DE
:10D2FC0000F0E6FBFFF728FF05B030BD0C13020071
:10D30C001C13020030B585B000250B018DF8080008
:10D31C000C098DF80B300095602102AA05230548F5
:10D32C008DF80C408DF809508DF80A5000F0D8FBA0
:10D33C0005B030BD1C1302002DE9F0434FEA420842
:10D34C00454E1546424406EB420287B054799C4246
:10D35C001F466AD084468E46002C69D000243F4874
:10D36C0000944FF010098DF808C0602102AA052323
:10D37C008DF810E08DF809408DF80A408DF80B40BF
:10D38C008DF80C408DF811408DF813408DF8144039
:10D39C008DF8129000F0A4FB0520013800BF00BFEF
:10D3AC0000BF00BF00BF00BF00BF00BF00BF00BF79
:10D3BC0000BF00BF00BF00BF00BF00BF00BF00BF69
:10D3CC0000BF00BF00BF00BF00BF00BF00BF00BF59
:10D3DC0000BF00BF00BF00BF00BF00BF00BF00BF49
:10D3EC0000BF00BF00BF00BF00BF00BF00BF00BF39
:10D3FC0000BF00BF00BF00BF00BF00BF00BF00BF29
:10D40C0000BF00BF00BF00BF00BF00BF00BF00BF18
:10D41C00C3D1454406EB4505104800940DEB0902B9
:10D42C006021052300F05CFB6F7107B0BDE8F08351
:10D43C008DF8081000944FF0100908488DF8094039
:10D44C00602102AA05238DF80A408DF80B408DF857
:10D45C000C408DF810C095E7282000201C1302000A
:10D46C004FF0A0432DE9F0414FF40022124CC3F8C9
:10D47C000C2506460025227994F80180A7780E2108
:10D48C00304600F01BF8EAB2034639464046FFF737
:10D49C0053FFE3782078F15C0135FFF733FF042D5F
:10D4AC0004F10604E7D14FF0A0434FF40022C3F877
:10D4BC000825BDE8F08100BF28200020024B405C0D
:10D4CC009B5C1840704700BF40200020405C7047B8
:10D4DC00F0B5044608789DF814609DF8187068B98A
:10D4EC00D4F8245192F800E0BDB10123C4F8240112
:10D4FC0063610B70B64508D00120F0BD0023C4F861
:10D50C002431C4F81C31C4F80831D4F80431002B90
:10D51C00F2D00020C4F80401F0BDD4F81CC1BCF159
:10D52C00000F0CD0C4F81C51D4F824C1BCF1000F6E
:10D53C0020D00123C4F8245163610B70DAE7D4F8CE
:10D54C0008010028D6D0C4F808C1D4F82401F8B9D1
:10D55C0011788E42CED9D4F818055854137801336B
:10D56C00DBB2711E8B4213701AD09E42C2D00123C3
:10D57C002362BFE711788E4203D8012377B1E361B0
:10D58C00F0BD5B5CC4F81C35137801331370B1E744
:10D59C000123C4F824C163610B70ABE76361A9E795
:10D5AC000223C4F80032E2E72DE9F04700240125FC
:10D5BC00C1F80441C1F82441C1F81C41C1F808412B
:10D5CC00C1F8004280F8264080F823400D628D603F
:10D5DC0090F8264082B09C429DF8288013D2145DAE
:10D5EC00C1F81C4590F826402C4480F8264004686D
:10D5FC0084B140F2862383608368C1F80433002031
:10D60C0002B0BDE8F087B8F1000F1ED00468CD6100
:10D61C00002CEED117461E4605460C4600F1230A97
:10D62C0000F126098DE84001204651464A463B460A
:10D63C00FFF74EFF0028F5D195F82330002B0CBFD7
:10D64C000020032002B0BDE8F0874D61CFE700BF9A
:10D65C002DE9F047012B4FF00004C1F80441066896
:10D66C00C1F82441C1F81C41C1F8084180F826409A
:10D67C0080F823400CBF02240124C1F8004201248D
:10D68C000C6282B00C604EB140F2862383608368DA
:10D69C00C1F80433002002B0BDE8F08790461F4665
:10D6AC0005460C4600F1230A00F126090097019665
:10D6BC00204651464A464346FFF70AFF0028F5D15B
:10D6CC0095F82330002B0CBF0020032002B0BDE8DE
:10D6DC00F08700BF30B50C4687B094F8205094F812
:10D6EC002120E36900950192233104F126020546BD
:10D6FC00FFF7EEFEB0B994F82330ABB9217B8B1E4B
:10D70C00012B2ED904F10C0393E8070006AD05E9B3
:10D71C00070000238DF80830A3690022590784F80C
:10D72C00242012D507B030BD04F10C0393E8070098
:10D73C00D5F8C434C5F8C43406AD05E907009A071A
:10D74C0009D501238DF80830E6E72368616802A843
:10D75C00984707B030BD580744BF02238DF80830F6
:10D76C00DAE7E26923699A42CCD1A0696269E37B6A
:10D77C00E261C0F34010032984F8210084F82030C2
:10D78C0004D020462946FFF763FFCBE700902946DB
:10D79C002046FFF709FFC5E72DE9F84F0579064E3E
:10D7AC00AF008646781906EBC00090F8220028B12D
:10D7BC000820BDE8F88F00BFB8220020002900F037
:10D7CC0079817819C000341832500022A26063604D
:10D7DC0084F8242084F82520D1F800904FEA890C95
:10D7EC000CF1A04C40F20C60CCF80007D1F804A06E
:10D7FC004FEA8A0303F1A0434FF001084FF0A04415
:10D80C0008FA09FB08FA0AFA40F20D69C3F8000796
:10D81C00C4F808B50420C4F808A5CCF80097C3F8E0
:10D82C000097013800BF00BF00BF00BF00BF00BFA2
:10D83C0000BF00BF00BF00BF00BF00BF00BF00BFE4
:10D84C0000BF00BF00BF00BF00BF00BF00BF00BFD4
:10D85C0000BF00BF00BF00BF00BF00BF00BF00BFC4
:10D86C0000BF00BF00BF00BF00BF00BF00BF00BFB4
:10D87C0000BF00BF00BF00BF00BF00BF00BF00BFA4
:10D88C0000BF00BF00BF00BF00BF00BF00BF00BF94
:10D89C0000BF00BF00BF00BFC3D1D1F804C0D4F893
:10D8AC00103523FA0CF3DB074FF00400E14600F1CE
:10D8BC00FD800B6808FA03F3C4F80C35013800BF7F
:10D8CC0000BF00BF00BF00BF00BF00BF00BF00BF54
:10D8DC0000BF00BF00BF00BF00BF00BF00BF00BF44
:10D8EC0000BF00BF00BF00BF00BF00BF00BF00BF34
:10D8FC0000BF00BF00BF00BF00BF00BF00BF00BF24
:10D90C0000BF00BF00BF00BF00BF00BF00BF00BF13
:10D91C0000BF00BF00BF00BF00BF00BF00BF00BF03
:10D92C0000BF00BF00BF00BF00BF00BF00BF00BFF3
:10D93C0000BFC3D10B6808FA03F3C4F80835042000
:10D94C00013800BF00BF00BF00BF00BF00BF00BF59
:10D95C0000BF00BF00BF00BF00BF00BF00BF00BFC3
:10D96C0000BF00BF00BF00BF00BF00BF00BF00BFB3
:10D97C0000BF00BF00BF00BF00BF00BF00BF00BFA3
:10D98C0000BF00BF00BF00BF00BF00BF00BF00BF93
:10D99C0000BF00BF00BF00BF00BF00BF00BF00BF83
:10D9AC0000BF00BF00BF00BF00BF00BF00BF00BF73
:10D9BC0000BF00BF00BFC3D10132092A7FF46DAF95
:10D9CC00D1F8049001234FF0A04203FA09F0C2F8F9
:10D9DC000C050420013800BF00BF00BF00BF00BF12
:10D9EC0000BF00BF00BF00BF00BF00BF00BF00BF33
:10D9FC0000BF00BF00BF00BF00BF00BF00BF00BF23
:10DA0C0000BF00BF00BF00BF00BF00BF00BF00BF12
:10DA1C0000BF00BF00BF00BF00BF00BF00BF00BF02
:10DA2C0000BF00BF00BF00BF00BF00BF00BF00BFF2
:10DA3C0000BF00BF00BF00BF00BF00BF00BF00BFE2
:10DA4C0000BF00BF00BF00BF00BFC3D14868834008
:10DA5C00C2F808354B680C68D1F808804FF0A0422A
:10DA6C0004F5E07003F5E07940F20C6C42F820C04C
:10DA7C0042F829C07819DEF8002056F83000C2F8B8
:10DA8C000845C2F80C35C2F8248530B1DEF8000028
:10DA9C00097B40F3073001F0A5FA3D4406EBC505C0
:10DAAC00012385F822300020BDE8F88F002A89D1A7
:10DABC006346D0E7014901EB051182E6241302000D
:10DACC000379064A016803EB830302EBC3030220CC
:10DADC00052283F82200C1F800257047B8220020E7
:10DAEC002DE9F04F0479DFF8A880066804EB840474
:10DAFC00E40087B008EB04054FF0FF3E05F120076A
:10DB0C009DF84000C6F808E397F804E000284FF0B1
:10DB1C00000014BF4FF0200A824603900490059039
:10DB2C00BEF1000F06D0AB68C6F80433112007B065
:10DB3C00BDE8F08F94468DF80E3004928DF80D10E0
:10DB4C0006AA894612E907001AF1000EC5F818A0BA
:10DB5C004FF0010A87F804A018BF4FF0010E05F131
:10DB6C000C0A8AE80700C6F888952846CDF800E02C
:10DB7C00314685F82030624687F801E0C5F81CC0B4
:10DB8C00FFF712FD58F80430002BD0D13B71CEE7D3
:10DB9C00B82200202DE9F04F0479DFF89080066858
:10DBAC0004EB8404E40008EB04054FF0FF3005F1AE
:10DBBC002009C6F8080385B099F80470002007F016
:10DBCC00FF0C01900290039037B1AB68C6F8043398
:10DBDC00112005B0BDE8F08F012796468DF8063070
:10DBEC0002928DF804708DF8051004AA8A4612E989
:10DBFC00070089F8047005F10C0787E8070085F821
:10DC0C002030C6F888A5284631467246C5F818C09B
:10DC1C00C5F81CE089F801C0FFF71AFD58F804306C
:10DC2C00002BD6D189F80430D3E700BFB8220020EE
:10DC3C0001480249FFF74EBD00300040B8220020D9
:10DC4C004FF040200149FFF745BD00BFE022002006
:10DC5C00A0DF7047A2DF7047A6DF704763DF704715
:10DC6C000B88112B0FD0502B05D0102B00D07047E8
:10DC7C008B888382704710B4CB8844889C4206D032
:10DC8C005DF8044B70474FF6FF73838270470B8A25
:10DC9C00002BF5D08369002BF2D012315DF8044BC8
:10DCAC00184700BFF0B5754C0E68A2686168E36850
:10DCBC00054695B02068AE6104AC4FF6FF760FC4F4
:10DCCC00AE8205F1120104A8FFF7C8FF18B1044693
:10DCDC00204615B0F0BD14A941F2235321F8483D5C
:10DCEC000120AB7C8DF80A302A46FFF7B1FF0446C1
:10DCFC000028EDD121460322684603F0C9F99DF8AE
:10DD0C0000709DF801309DF802E0012666F30307D0
:10DD1C0066F3030366F3071366F3420E214666F3BC
:10DD2C0007171C220DA88DF800708DF801308DF8A6
:10DD3C0002E003F0ADF99DF8343095F812E00E9442
:10DD4C0043F01203214641F22457032201A81094F8
:10DD5C00119413948DF834308DF80EE0ADF80C70EE
:10DD6C00CDF848D003F094F99DF806309DF804E006
:10DD7C009DF8057066F3420364F3C30364F3041364
:10DD8C0064F3030766F3030E64F3000366F3071EE4
:10DD9C0064F307172146142208A88DF806308DF875
:10DDAC0004E08DF8057003F073F92B4601AA099273
:10DDBC00ADF82A400C940DA903AC33F80A0B089467
:10DDCC0008AA1427ADF82860ADF82C70FFF742FFB5
:10DDDC00044600287FF47CAF21461C220DA803F0DA
:10DDEC0057F99DF8343095F812C00E9443F00A039D
:10DDFC0041F2255E2146032201A81094119412943D
:10DE0C0013948DF834308DF80EC0ADF80CE003F09F
:10DE1C003FF99DF806309DF804C09DF805E066F3C7
:10DE2C00420364F3C30364F3041366F3030C66F355
:10DE3C00030E64F3000366F3071C66F3071E21460A
:10DE4C003A4608A88DF806308DF804C08DF805E028
:10DE5C0003F01EF92B4603AA08920DA933F8020B06
:10DE6C00ADF82A4008AA01AD0C940995ADF82860CC
:10DE7C00ADF82C70FFF7EEFE044629E744130200C0
:10DE8C00F0B589B0054617468DF80710012404A893
:10DE9C0000211022ADF80E4003F0FAF86E89A88A22
:10DEAC00ADF814700DF107020DF10E0304A98DF8F5
:10DEBC001240ADF8106007920693FFF7CDFE09B043
:10DECC00F0BD00BF014B1870704700BF0823002045
:10DEDC00F0B5274C274D6168A268E36820682E785E
:10DEEC00277C254C87B001AD0FC506AB1E442F70A7
:10DEFC0016F8142C2146264600234FF40C7540F2DC
:10DF0C009A6742FA03F026F82350C00703F1010385
:10DF1C004CBF4F804D80082B01F10401F1D1002042
:10DF2C001649174D03F086F822881649002003F095
:10DF3C0081F8043434F8022C1349002003F07AF8E9
:10DF4C00AC42F1D110210C4800F0BEF80A2000F0D0
:10DF5C00FDFF0220FEF7C8FB322000F0F7FF322055
:10DF6C0000F0F4FFFA2007B0BDE8F040FEF7BCBBB0
:10DF7C0054130200082300200C2300206813020015
:10DF8C002C230020F8130200FC13020021DF704741
:10DF9C0023DF704724DF704725DF704726DF70478B
:10DFAC002DE9F0473B4B3C493C4DDFF804A1000206
:10DFBC00002240F003104FF004094FF01A084FF004
:10DFCC00230C4FF0020E01274FF440366024CAF8A0
:10DFDC001005C3F80425C3F80825C3F81095C3F839
:10DFEC004085C3F844C5C3F800E2C1F80475C1F814
:10DFFC000825C1F80463C1F84021C1F8442185F813
:10E00C000A4395F80A335B09991E05290AD8043B83
:10E01C00BB4207D9224B9C68002C35D14FF480634E
:10E02C002B6001E042F202041E491F4A0020FFF758
:10E03C00AFFF1E491E4A04430120FFF7A9FF1C4AEB
:10E04C00184904430220FFF7A3FF062104430020D4
:10E05C00FFF7A4FF04430020FFF79EFF1549164A63
:10E06C0004430320FFF794FF1449154A044304208A
:10E07C00FFF78EFF04431F20FFF788FF114B002290
:10E08C0020431A70BDE8F087196841F4806114468A
:10E09C001960C9E70090004000A0004000E100E0DA
:10E0AC003C2900204491004008A0004040910040D1
:10E0BC000060004040A1004004F0014044A1004039
:10E0CC0000F00140342300202DE9F84FDFF888E000
:10E0DC009EF80030002BFDD10446478834F8040B21
:10E0EC00194A1A4EDFF874A0DFF87490DFF87480C8
:10E0FC00074407F1110B1130A2FB00C5A2FB0BC2A8
:10E10C00401BC2EB0B0B05EB500002EB5B02012535
:10E11C004FEA501B52098EF80050C6F840B5CAF8A9
:10E12C000040C9F80070C6F84425094AC8F8001028
:10E13C0018461360FFF72EFF064BF5603560DD6067
:10E14C001D60BDE8F88F00BFD5411DD400A0004074
:10E15C002C23002000900040342300203C2300207E
:10E16C0038230020302300202DE9F04FDFF8B89041
:10E17C00284FD9F8000000F1500357F82330002B3A
:10E18C0046D0254BDFF8A4B01C68244BDBF80060AC
:10E19C001D68234BDFF898C093F800804FF0000EF9
:10E1AC0013E03288154405F11101ACFB01A2891A68
:10E1BC0002EB510252090236C3F84025C0F10100AE
:10E1CC0000F1500357F82330BBB1830003F18043B7
:10E1DC0003F52043013C012CC3F840E1E1D8002CAD
:10E1EC00ECD1104B0122C0F101005A6000F1500338
:10E1FC00A04657F82330002BE7D1084BCBF8006032
:10E20C001D60074BC9F8000083F80080024B1C60AE
:10E21C00BDE8F08F00A00040302300203823002000
:10E22C0034230020009000402C2300203C230020AD
:10E23C00D5411DD4F0B5002385B00224162717262E
:10E24C004FF448751A460C48019301A903930293A5
:10E25C008DF804708DF805608DF806408DF80E4031
:10E26C00ADF80C5001F0B8FB18B13521034A01F0A0
:10E27C00FDFC05B0F0BD00BF5020002004140200CE
:10E28C00154B1648D3ED006A93ED017AD3ED027A63
:10E29C001349FCEEE66ABCEEC77AFCEEE77AF0B402
:10E2AC0016EE906A17EE105A17EE904A0D4F6FEA61
:10E2BC0046466FEA45456FEA44446FEA56466FEAB4
:10E2CC0055456FEA54443E807D80BC80012200237A
:10E2DC00F0BC01F009BC00BF4023002050200020FE
:10E2EC008C1402004820002010B485B08DED000A7B
:10E2FC00CDED010A8DED021ACDED031A04AB13E935
:10E30C000F00044C84E80F0005B05DF8044BFFF7D8
:10E31C00B7BF00BF40230020F8B50446172800F211
:10E32C00F181DFE810F07301830183017D00A5000A
:10E33C00CD00F30059002F0018002F001800180111
:10E34C002601260126012601260151015F016901E2
:10E35C004400700070004FF0A042D84CD2F8043545
:10E36C00D748D94301F4802103F48023C2F808155F
:10E37C00C2F80C352168002201EB8101BDE8F840A0
:10E38C0002F0B6B84FF0A042CC4CD2F80435CC48D1
:10E39C00D94301F4802103F48023C2F80815C2F894
:10E3AC000C3521680022BDE8F84002F0A1B8C54840
:10E3BC004FF0A0434FF4C01200214FF4C025152498
:10E3CC00C3F80825C3F80C150A46C3F80C55C3F856
:10E3DC00081504701046F8BDBB4BBA4C1B684FF0C7
:10E3EC00A041DB43002003F4E0134FF40036072573
:10E3FC00C1F808350246C1F80C05C1F80C65C1F826
:10E40C0008052570E6E74FF0A043AE484FF4F01234
:10E41C000021C3F80C25C3F808150A460470D9E787
:10E42C00A94B1B684FF0A042DB4303F4E013002020
:10E43C00C2F80835C2F80C05D2F8043583F4F01391
:10E44C0013F4003340F031814FF40031C2F80C1555
:10E45C000221C2F80835994A9A4B1268984803244D
:10E46C0002FB01F11C700022BDE8F84002F040B83C
:10E47C00954B1B684FF0A042DB4303F4E0130020E4
:10E48C00C2F80835C2F80C05D2F8043583F4F01341
:10E49C0013F4003340F001814FF40031C2F80C1535
:10E4AC000421C2F80835854A864B12688448042436
:10E4BC0002FB01F11C700022BDE8F84002F018B814
:10E4CC00814B1B684FF0A042DB4303F4E0130021A7
:10E4DC00C2F80835C2F80C15D2F8043583F4F013E1
:10E4EC0013F4003340F0D2804FF40031C2F80C1515
:10E4FC00C2F80835714A734B1168714805241C70B9
:10E50C0049000022BDE8F84001F0F2BF6E4B1B68D9
:10E51C004FF0A042DB4303F4E0130021C2F80835AE
:10E52C00C2F80C15D2F8043583F4F01313F400334D
:10E53C0040F0A5804FF40031C2F80C15C2F8083534
:10E54C005E4A604B11685E4806241C700022BDE8D0
:10E55C00F84001F0CDBF4FF0A0435A484FF4F012F1
:10E56C0000210C24C3F80C25C3F808150A460470C6
:10E57C0030E7564802F00EF8D4F11104024600F0D0
:10E58C00B480002840F0B1804F4E4FF40023012C92
:10E59C00336011D0494B4E4F19684C48C82505FBC8
:10E5AC0004F3A7FB03435B0901FB03F101F0A0FF9C
:10E5BC003368024603F4F0134FF0A0410020C1F879
:10E5CC000C35C1F8080505E74FF0A0433D484FF462
:10E5DC00F01200211224C3F80825C3F80C150A46C2
:10E5EC000470F7E64FF0A04336484FF4E0120021D8
:10E5FC004FF400351324E3E64FF0A04331484FF4B9
:10E60C00D01200214FF480251424D9E62E4B2D4C2A
:10E61C001B684FF0A040DB43002103F4F013C0F85B
:10E62C0008350A46C0F80C152170D3E6264B1B683A
:10E63C004FF0A042DB4303F4E0130020C2F808358E
:10E64C00C2F80C05D2F8043583F4F01313F400333C
:10E65C0040D14FF40031022CC2F80C150CBF022132
:10E66C000421C2F80835154B164A1B68147003FBBD
:10E67C0001F113480022BDE8F84001F039BF4FF416
:10E68C000033C2F80835C2F80C1559E74FF40033C3
:10E69C00C2F80835C2F80C152CE74FF40033C2F859
:10E6AC0008352821C2F80C05FDE64FF40033C2F8FA
:10E6BC0008350821C2F80C05CDE600BF5823002010
:10E6CC005C2300207C230020542300208023002086
:10E6DC001F85EB51022C4FF40033C2F808350CBFE8
:10E6EC0012212821C2F80C05BDE707490B684FF031
:10E6FC00A044002003F4F013C4F80835C4F80C054A
:10E70C00086067E6002265E654230020044B1B6872
:10E71C0013F0010301D118467047FFF7FDBD00BF90
:10E72C005023002071DF704772DF704779DF70472C
:10E73C007DDF704765DF70472DE9F04F85B083466C
:10E74C000E9D00882C880194BDF83C9000284ED07A
:10E75C0000278A46164698463C4604E0BBF8003033
:10E76C000134A34226DDDBF8043053F82400039077
:10E77C000DF10B0103A80022FFF7DCFF18BB9DF87D
:10E78C000B30B342EAD10FB32A8893194B4519DCED
:10E79C00424403A80DF10B010127FFF7CBFF90B901
:10E7AC002B889DF80B2013442B80BBF800300134D0
:10E7BC00A342D8DCDFB12B88019A013B9B1A9BB298
:10E7CC00FF2B12D90C2005B0BDE8F08F2B885A1CFA
:10E7DC00334402334B4592B2F4DC2A8008F802A091
:10E7EC002A88013292B22A80D2E708F8023000203F
:10E7FC0005B0BDE8F08F00BF2DE9F04182B017469F
:10E80C00089DBDF8244000950194022280461E46C6
:10E81C00FFF792FF10B102B0BDE8F08140463946D7
:10E82C00334610220895099402B0BDE8F041FFF779
:10E83C0083BF00BF2DE9F047436B1588002484B0DB
:10E84C001480B3B1022D1C7803D80C2004B0BDE8A1
:10E85C00F08702230B70138801339BB211261380AF
:10E86C00CE54138801339BB21380CC5413880133DC
:10E87C001380076BDFB1138803F11204AC42E4D8A8
:10E88C001124CC54138801339BB210241380CC5424
:10E89C0014880134A4B2148007F1100313F8016D2D
:10E8AC000E5514880134A4B2BB421480F6D190F8F2
:10E8BC002E30002B51D190F82D300F4614460646C1
:10E8CC00002B64D1B378002B40F08C80F3789BB193
:10E8DC002288D11CA942B8D80221B954228801320D
:10E8EC0092B201212280B95422880A4492B2228029
:10E8FC00BB5423880B4423807368A3B122881978F6
:10E90C00D31CAB42A1D80223BB54238801339BB246
:10E91C000A222380FA54238801339BB22380F954B2
:10E92C002388013323803389002B40F02A81338ADA
:10E93C00002B40F09481338B002B40F09D81316A89
:10E94C00002900F0AA8023889A1DAA423FF67DAFC9
:10E95C000A88052A68D8072078E71488E61CAE4296
:10E96C003FF673AF02260E5514880134A4B21C2650
:10E97C0014800E5514880134A4B2013B1480032B6F
:10E98C00E9D8DFE813F0620165015F0159011388D2
:10E99C000933AB423FF659AF02A8FFF7C3FE00287C
:10E9AC007FF454AF23880822FA54238801339BB296
:10E9BC001B222380FA542088013080B2208006224A
:10E9CC0038440DF1090102F045FB23889DF808201D
:10E9DC0006339BB2238002B10122FA5423880133FF
:10E9EC0023806FE723880433AB423FF62EAF02A897
:10E9FC00FFF79CFE00287FF429AF2388BDF8082080
:10EA0C000321F954238801339BB219212380F95433
:10EA1C00238801339BB2F9182380100AFA544870EA
:10EA2C0023880233238051E76FF4486802EB080017
:10EA3C0080B24FF27D3E70458DD9488805288AD921
:10EA4C006FF4486C84441FFA8CFCF44583D94FF660
:10EA5C00FF7E724504D0704502D082423FF67BAFF8
:10EA6C000522FA54238801339BB212222380FA54D4
:10EA7C00238801339BB223800A88FA543B44120A40
:10EA8C005A70238802339BB223804A88FA543B4441
:10EA9C00120A5A70238802332380D6F82480B8F1E6
:10EAAC00000F31D0B8F804202188131D0B44AB4261
:10EABC003FF6CBAE931CFE2B3FF6C7AE03327A5417
:10EACC00238801339BB2FF222380FA54238801331D
:10EADC009BB22380B8F80020FA543B44120A5A70B7
:10EAEC002088023080B22080B8F8042062B1D8F8B7
:10EAFC00081000293FF42FAF384402F0ABFAB8F8F5
:10EB0C00043022881344238096F82C30002B45D1F6
:10EB1C00307800283FF49AAE3388012B3FF41BAFBA
:10EB2C0023889A1CAA423FF690AE012805D1717831
:10EB3C00023119448D42FFF488AE023DED1A04A94E
:10EB4C00ADB221F8085DB818FFF7F2FD00287FF48C
:10EB5C007DAE3378022B00F09C80012B7BD02B46B2
:10EB6C000821FE2B3FF671AE22885D1CBD54228815
:10EB7C00013292B22280B95422880132134423808C
:10EB8C0064E68DE8300006F10800022106223B46BF
:10EB9C00FFF732FE00283FF4CAAE57E6D6F82880BD
:10EBAC00B8F1000F3FF4D7AEB8F804300233FE2BA7
:10EBBC003FF64BAE4FF000094FF0160A08E0B36A6F
:10EBCC0003EB8808B8F804300233FE2B3FF63DAE59
:10EBDC0022880133BB54238801339BB2238007F86E
:10EBEC0003A0238801339BB22380B8F80020FA5489
:10EBFC003B44120A5A702088023080B22080B8F848
:10EC0C00043038441A4663B1D8F808301946002B42
:10EC1C003FF4A1AE02F01EFAB8F804302288134477
:10EC2C00238009F1010996F82C305FFA89F94B45DC
:10EC3C0009EB4908C3D86BE703230B551388013341
:10EC4C00138038E602230B55F8E700230B55F5E744
:10EC5C0001230B55F2E773789D4281D27FE78DE853
:10EC6C00300006F11000032107223B46FFF7C4FDDC
:10EC7C0000283FF460AEE9E58DE8300006F118009D
:10EC8C00142115223B46FFF7B7FD00283FF457AE81
:10EC9C00DCE5BDF808309D42FFF461AF092160E767
:10ECAC0030B593B01F230D46ADF80430ADF80630E7
:10ECBC0010B3C3785B0702D4072013B030BD02A990
:10ECCC0001AAFFF7B7FD0028F7D102ACC5B1EB786C
:10ECDC00002BF1D128460AA90DF10602FFF7AAFD77
:10ECEC000028EAD19DF806300AAA20469DF80410A7
:10ECFC00FFF71AFD13B030BDADF804000446E5E78C
:10ED0C002B46ADF806502A46EFE700BF75DF70477B
:10ED1C0076DF70477ADF70477BDF7047184B1888B7
:10ED2C004FF6FF7398422AD010B5164A164C13783A
:10ED3C00217B0133DBB2994282B013700CD2237C5D
:10ED4C00002111708BB9636923B102A8002200F86D
:10ED5C00042D984702B010BD0C49FFF7D7FF0028CF
:10ED6C00F8D0A369002BF4D1F4E73B21FFF7D0FFD7
:10ED7C000028E8D0A369002BE5D09847E3E770475B
:10ED8C00EC230020AC230020B0230020F023002033
:10ED9C0070B51E4B1E4A5B881188994282B00FD801
:10EDAC0052889A420CD31B4B5B6923B102A80122F7
:10EDBC0000F8042D9847184C0023237002B070BD46
:10EDCC00154C227862B1134B5B69002BF4D002A86E
:10EDDC00002200F8042D98470023237002B070BD68
:10EDEC000C4D0E4869680678AB680D48002E18BFAC
:10EDFC00194601F07DFB0028DED0AB69002BDBD07F
:10EE0C0098470023237002B070BD00BFA4230020DC
:10EE1C00F0230020B0230020A0230020AC230020EE
:10EE2C00CC230020F8B505460FCD144C144F0FC45D
:10EE3C00064695E80700002384E807003B70B6B14E
:10EE4C003068104B716803C3A3F10800FFF762FF31
:10EE5C0090B90D4C0D4D0E480E4A00234FF6FF761F
:10EE6C00237019462E80BDE8F84001F02FBB0548F1
:10EE7C00FFF752FF0028ECD0F8BD00BFB0230020F4
:10EE8C00A0230020F0230020AC230020EC23002042
:10EE9C009C14020029ED01000388112B70B527D0BA
:10EEAC0012D9122B07D0502B45D1234CC288E389A1
:10EEBC009A4230D070BD083003C8204B83E8030061
:10EECC00BDE87040FFF764BF102B33D11C491A4CBE
:10EEDC001A4B1C4DE48900F118028088088092E8D6
:10EEEC000300002283E803002A70002CE8D070BDD8
:10EEFC001349144B14484FF6FF7400220C801A70FF
:10EF0C0001F048FB0028D5D00B4B9B69002BD1D0CE
:10EF1C00BDE870401847038A022BCBD1837CDB07FA
:10EF2C00CED4094801F036FB0028C3D0A369002BCE
:10EF3C00EED1BFE770BD70BDB0230020A42300202C
:10EF4C00EC230020AC230020CC23002082B00190C5
:10EF5C00019B002B43D0019B013B019340F2E73016
:10EF6C00013800BF00BF00BF00BF00BF00BF00BF23
:10EF7C0000BF00BF00BF00BF00BF00BF00BF00BF8D
:10EF8C0000BF00BF00BF00BF00BF00BF00BF00BF7D
:10EF9C0000BF00BF00BF00BF00BF00BF00BF00BF6D
:10EFAC0000BF00BF00BF00BF00BF00BF00BF00BF5D
:10EFBC0000BF00BF00BF00BF00BF00BF00BF00BF4D
:10EFCC0000BF00BF00BF00BF00BF00BF00BF00BF3D
:10EFDC0000BF00BF00BFC3D1019B002BBBD102B04F
:10EFEC00704700BF002810B418DB00F1604303F534
:10EFFC0061434901C9B283F80013C3B240098000D0
:10F00C0000F1604000F5614003F01F0201239340C2
:10F01C00C0F8803103605DF8044B7047C3B2044AFA
:10F02C0003F00F0449012244C9B21176E6E700BF90
:10F03C00FCEC00E010B5194C94F854300BB10820DE
:10F04C0010BD04F12F0304F14F01FF2203F8012F2F
:10F05C008B42FBD1124A4FF0FF302060A2F14904E1
:10F06C002146002307E0072B41F8040F02F10102AF
:10F07C0088BF02F8010C0133DBB20C2BF3D1062054
:10F08C000146FFF7AFFF074A4FF000410123C2F8DA
:10F09C000413002084F8543010BD00BFF823002066
:10F0AC004124002000600040034B93F854000030D2
:10F0BC0018BF0120704700BFF8230020F0B53E4E6A
:10F0CC00341894F93030002B01DB0820F0BD91F896
:10F0DC0003E0BEF1000F10D03368013365D0082770
:10F0EC00002306EB830403E054F8045F01350AD0D7
:10F0FC000133BB42F8D30420F0BD336A01334DD049
:10F10C000C270823EDE73518DCB246F8232085F8E8
:10F11C003040BEF1000F02D1334483F848008B78A5
:10F12C00ABB94A784FF0A04500F5E073920045F872
:10F13C002320CB78ABB964B2083C2644097896F806
:10F14C00502042EA811286F850201846F0BD830008
:10F15C0003F1A043D3F8002722F00202C3F80027E2
:10F16C00E7E763B29B0003F1804303F5C0430A78E1
:10F17C00D3F8101521F4473121F44071C3F8101560
:10F18C001204000202F44031D3F8104500F4F85296
:10F19C000A432243C3F810250020F0BD082584F84B
:10F1AC0030502B4632622C46B6E7002384F83030C0
:10F1BC0032601C46B3E700BFF8230020F0B42E4D9C
:10F1CC002E1882B096F8302053B2072B1CDD2B443E
:10F1DC0093F848309B09032B40D0012B0CBF4FF404
:10F1EC0000314FF44031800000F1A040D0F80027EE
:10F1FC0022F44032C0F80027D0F800370B43C0F897
:10F20C00003702B0F0BC7047072AFAD8980000F11A
:10F21C00804000F5C04003F140029200D0F8104548
:10F22C0092B202F18042002744F0010402F5C04280
:10F23C00C0F810450197019817600029E1D096F9A4
:10F24C00302055F82220002ADBD001220B4902FA8B
:10F25C0003F3C1F8043302B0F0BC70474FF0A04286
:10F26C000123D2F810258340134214BF4FF44031D0
:10F27C004FF40031B7E700BFF823002000600040D6
:10F28C00154B034493F8302053B2072B16DC072A96
:10F29C0013D89A0002F1804202F5C04210B4D2F8A1
:10F2AC0010050E4C012120F0010001FA03F3C2F805
:10F2BC001005C4F808335DF8044B7047800000F16A
:10F2CC00A040D0F8003723F44033C0F80037D0F812
:10F2DC000037C0F800377047F8230020006000406A
:10F2EC00054B184490F930004030800080B200F19A
:10F2FC00804000F5C0407047F82300202DE9F04F06
:10F30C00002683B05E4B5F4D5F4C3746012203E015
:10F31C00A3424FEA420213D0184653F8041B0129AA
:10F32C00F6D1D5F804130A42F2D043F8047C0168F4
:10F33C000091A34246EA020600994FEA4202EBD141
:10F34C00524B1A68012A00F08F804FF0000816F01B
:10F35C00FF0F1DD04E4F0125002402E00134082C74
:10F36C0016D035424FEA4505F8D0A30003F180438F
:10F37C0003F5C04357F82420D3F81005D3F8101523
:10F38C00C0F30420C1F3014101349047082CE8D1AB
:10F39C00002E02DB03B0BDE8F08F3E4D4FF0FF3680
:10F3AC00A5F153074FF0000A3B4C4FF0000914F83D
:10F3BC00011FFF2920D0C9B221F0C00026FA00F3AA
:10F3CC00DB0719D53B18890993F9303057F82320FE
:10F3DC004AB34FF0010E03290EFA00FE29D0830028
:10F3EC0003F1A0431EEA080FD3F800C7CCF3014C7D
:10F3FC0010D1BCF1030F1FD0AC42D8D1B9F1000F22
:10F40C00C8D04FF0A043D3F810359845C2D09846D9
:10F41C005646C9E7BCF1020FEED1032911D0002AE0
:10F42C00EAD09047E8E70329E6D14FF0010E0EFA37
:10F43C0000FE4AEA0E0AD2E70329F0D14FF4003B52
:10F44C0001E04FF4403BD3F800C72CF4403CC3F828
:10F45C0000C7D3F800E709F101094BEA0E0E5FFA79
:10F46C0089F9C3F800E7DAE700221A601B680193F8
:10F47C004FF0A043019AD3F8108546F0004666E79A
:10F48C000061004000600040206100407C61004051
:10F49C00F82300204B24002047240020F0B59C4C7E
:10F4AC00237F85B0002B74D19A4AD2F804138905B6
:10F4BC0048D4984BD3F80423520710D5964A1168B8
:10F4CC0069B1E17D9248002940F008811160D3F8C0
:10F4DC001835627EE17D8E4B914200F0E3808F4BBC
:10F4EC001A68A2B1A28AA17D894892B291424FF0CA
:10F4FC0000021A6040F29280828A838A856885496C
:10F50C0092B20133AA5C9BB28382C1F81C25844B56
:10F51C001A68AAB1A27E00211960002A79D1E27D75
:10F52C007B4B6AB15A7ED9688DF8082000200122E5
:10F53C0001918DF80020D87593E806006846904735
:10F54C0005B0F0BD774908680028B2D0A07E0B60EA
:10F55C004FF40173C2F8083328B903F1804303F563
:10F56C00F05301221A606B4AE67DD2F88034E068D1
:10F57C00656802218DF80010C2F8803403930023D3
:10F58C00019021688DF808606846E3752376A847DA
:10F59C00A5E7644A1368002B4FD1634A116839B14F
:10F5AC005C481360D0F83C25E17DD2B2914260D02A
:10F5BC005B4B1A68A2B1E17D554800221A6079B103
:10F5CC00A3F5A273C168D3F83C358DF8083001233C
:10F5DC0001918DF80030C27590E80A006846984792
:10F5EC00524B1A68002AABD0A17D494800221A6000
:10F5FC000029A5D047498368D1F84C158DF808101F
:10F60C000193827590E80A008DF8002068469847AF
:10F61C0096E7A3F5A27301221A6080E700293FF454
:10F62C0076AF83688DF808100193827590E80A0014
:10F63C008DF800206846984769E700233549136028
:10F64C00D1F88024E068E375022665688DF80060C7
:10F65C00C1F880240392D1F83C258DF80820019044
:10F66C00216823766846A8472D4B1A68002AB7D024
:10F67C00A1E7277E002F3DD0D0F80022E77522F0BD
:10F68C002007E6682569C0F8007201208DF8081083
:10F69C008DF800002376216801966846E560636862
:10F6AC00984785E71A7E002A44D19B7E13B9204BDC
:10F6BC0001221A60174AE06863684FF40171C2F8BE
:10F6CC000813627E8DF80820012201908DF800202D
:10F6DC00216800226846E275984700E70021116016
:10F6EC00427ED3F81855437EC1680133DBB28D548A
:10F6FC004376EEE6E2688DF8081001238DF80030B1
:10F70C00019294E80A00E7756846984750E700BFF5
:10F71C005024002000200040082100401C21004003
:10F72C0044210040242100401021004020210040B1
:10F73C0004200040D968587E01911E69DA750121B8
:10F74C0000228DF808008DF80010684693E822001E
:10F75C00DE601A765A76A847C1E600BF034B1878CC
:10F76C0008B18520704701221A7070477024002060
:10F77C002DE9F04F002685B0194DDFF868A08346BF
:10F78C00B1464FF0010805E09DF80F0000F064FF52
:10F79C00A54320D0F7B208FA07F40DF10F008DF84D
:10F7AC000F9000F031FF2C4206F10106ECD0DAF894
:10F7BC0000300C4914EA0302E6D11C439DF80F00FB
:10F7CC008BF8007001920C6000F046FF019A104615
:10F7DC0005B0BDE8F08F042005B0BDE8F08F00BF88
:10F7EC00FF3F0F007424002063B32DE9F84F5E1E19
:10F7FC00F6B2002417468B4682460136A04600F529
:10F80C00A0754FF4803903E0B44205F1040517D01C
:10F81C0004F150002B68800009FA04F280B2013424
:10F82C00002BF1D0DAF804331A42EDD0C5F8008081
:10F83C00DBF8003039689847B44205F10405E7D18C
:10F84C00BDE8F88F704700BF2DE9F04105792E4EC9
:10F85C004FEA450808EB050306EB830304461B7AC5
:10F86C0013B10820BDE8F081002A44D00F460029CE
:10F87C0044D008EB05039B00F118F2507B684B60F9
:10F88C006379002B3ED00023206819469A0002F5BC
:10F89C00A072013381506279DBB29A42F6D8F978C2
:10F8AC0040F30730FFF79EFB23687978D3F8040503
:10F8BC00BA783F7820F0030401F003002043C3F82A
:10F8CC000405D3F8081502F0030221F003011143DB
:10F8DC00C3F80815D3F81025454407F00F0106EBC3
:10F8EC00850522F00F020A430121C3F81025297265
:10F8FC000020BDE8F0810720BDE8F081034F07EB45
:10F90C00C507B6E72068CAE778240020A0140200D7
:10F91C000368054A01211960037903EB430302EBE9
:10F92C00830302221A7270477824002001F110031D
:10F93C009B000268DBB2012001F5A871D05052F88F
:10F94C0021007047024903480A1D0423FFF74CBFEE
:10F95C007824002000800040034A044802F10C0186
:10F96C0004231032FFF740BF7824002000900040A1
:10F97C00034A044802F1240106232832FFF734BF5E
:10F98C007824002000A00140034A044802F1300111
:10F99C0006233432FFF728BF7824002000B0014042
:10F9AC0030B40C6802250D7174B112F0040F0CBF49
:10F9BC0082219221140748BF41F02001D20648BF92
:10F9CC0021F08001C0F8001300210122C0F80411BD
:10F9DC0030BCC250704700BF2DE9F04F0779404E44
:10F9EC00FD00731985B01B791BB1082005B0BDE86B
:10F9FC00F08F00296ED046F837204C1E6A4601F174
:10FA0C0003084FF0FF3A4FF0A04E4FF003094FF0B0
:10FA1C00010C14F801BFBBF1FF0F2BF0800356D083
:10FA2C001BF0800F13600CFA03FB08BF0CFA03FBEE
:10FA3C0003F5E07314BFCEF808B5CEF80CB54EF84C
:10FA4C002390444502F10402E3D1006891F80B9035
:10FA5C0091F80AE0019B56F837C0009F91F806A078
:10FA6C000C8991F805B0C0F86075C0F86435029B3C
:10FA7C00C0F8683500274EEA0922039BC0F86C35A4
:10FA8C004FF00109C0F80095C0F80CB5C0F804A5FA
:10FA9C00C0F80845C0F81025C0F80072C0F8007313
:10FAAC00C0F81C71C0F81071C0F81471C0F8047162
:10FABC00BCF1000F04D040F307300979FFF792FA3C
:10FACC003544012300202B7105B0BDE8F08FC2F83E
:10FADC0000A0B6E7034B07EB470103EB81018AE774
:10FAEC00B4240020C81402002DE9F04102F0010CEE
:10FAFC0090F8048000680F688E888D68CC68DFF8F9
:10FB0C0080E0C0F820750CEB5202C0F82465C0F8F8
:10FB1C002855C0F82C45C0F84075C0F84465C0F8AD
:10FB2C004855C0F84C45C0F81425DA070EEBC8014F
:10FB3C000ED413F002020DD1BCF1000FC0F800225C
:10FB4C00BDE8F041DAB214BF0C230823FFF728BF3D
:10FB5C001022F1E7BCF1000F08D00824DAB2C0F88B
:10FB6C0000420C23BDE8F041FFF71ABF0424DAB2BF
:10FB7C00C0F800420823BDE8F041FFF711BF00BFF9
:10FB8C00B42400201F4BD3F80423D00610B502D5A3
:10FB9C00D3F8102132BB1B4BD3F80423910602D5AA
:10FBAC00D3F8142132BB174BD3F80423120602D519
:10FBBC00D3F81C217AB9134BD3F8042102B910BD28
:10FBCC000021114AC3F8041101211368117103209B
:10FBDC00BDE8104018470C4A0020C3F81C011368FC
:10FBEC009847E8E7084A0021C3F810110120136870
:10FBFC009847D0E7044A0021C3F814110220136877
:10FC0C009847D0E700C00140B424002070B5084DDF
:10FC1C002B785BB1074E00243368012113F83400B4
:10FC2C00FFF7CCFA2B780134A342F5D8002070BD35
:10FC3C00C0240020BC24002070B5094D2B7853B192
:10FC4C00084E0024336813F83400FFF719FB2B78A7
:10FC5C000134A342F6D80448BDE8704000F09ABCC9
:10FC6C00C0240020BC240020C424002000B585B092
:10FC7C00ADF8041002920390002144F2010001AA95
:10FC8C0000F036F805B05DF804FB00BF30B482B06C
:10FC9C0001248DF80740154B9DF80750186044F26D
:10FCAC000104A04259609A6014D044F202018842C7
:10FCBC0008D072B69DF80730002BFBD162B602B0AB
:10FCCC0030BC7047DA60DA6812889A61DA68526878
:10FCDC00DA61EEE71A611A6992685A611A69128838
:10FCEC009A611A695268DA61E3E700BFE4240020E4
:10FCFC0070B506460D4614460C20FEF707FD30463F
:10FD0C0029462246BDE87040FFF7C0BF484B494822
:10FD1C0030B401214FF480344FF400352F22C0F859
:10FD2C008050C3F848431046C3F808435960013863
:10FD3C0000BF00BF00BF00BF00BF00BF00BF00BFBF
:10FD4C0000BF00BF00BF00BF00BF00BF00BF00BFAF
:10FD5C0000BF00BF00BF00BF00BF00BF00BF00BF9F
:10FD6C0000BF00BF00BF00BF00BF00BF00BF00BF8F
:10FD7C0000BF00BF00BF00BF00BF00BF00BF00BF7F
:10FD8C0000BF00BF00BF00BF00BF00BF00BF00BF6F
:10FD9C0000BF00BF00BF00BF00BF00BF00BF00BF5F
:10FDAC0000BF00BFC3D1244C9960002310462360D0
:10FDBC00013800BF00BF00BF00BF00BF00BF00BFC5
:10FDCC0000BF00BF00BF00BF00BF00BF00BF00BF2F
:10FDDC0000BF00BF00BF00BF00BF00BF00BF00BF1F
:10FDEC0000BF00BF00BF00BF00BF00BF00BF00BF0F
:10FDFC0000BF00BF00BF00BF00BF00BF00BF00BFFF
:10FE0C0000BF00BF00BF00BF00BF00BF00BF00BFEE
:10FE1C0000BF00BF00BF00BF00BF00BF00BF00BFDE
:10FE2C0000BF00BF00BFC3D1044A30BC1370704781
:10FE3C000010014000E100E00425002024250020F2
:10FE4C00EFF30583C3F3080393B1103B5AB2002AB6
:10FE5C0012DB02F1604303F5614393F800335B0955
:10FE6C00DBB2022B06D0062B0CBF01200220704700
:10FE7C000220704700207047034A03F00F031A4416
:10FE8C00137E5B09ECE700BFFCEC00E02A4B2B4A2D
:10FE9C001B682DE9F0410025C2F84051C2F84451CD
:10FEAC00C2F84851C2F84C51C2F80051C2F8045182
:10FEBC001BB32349D2F804250C68224F141B1A6873
:10FECC0024F07F44A242A84609D8197CDE69A41A02
:10FEDC001544A1B91EB133461A68A242F5D91A4B82
:10FEEC001A491A780B789A421ED01949194A41F8C6
:10FEFC0023504FF48013C2F80031BDE8F081D3F8E1
:10FF0C0014C083F810803A689B696046194642B168
:10FF1C0090470028DED040F265110F4AFFF7A6FE8D
:10FF2C00D8E71846E047D5E7531CDBB2022B08BFD5
:10FF3C0000230B70D9E700BF0825002000100140FA
:10FF4C00042500200C250020182500201925002050
:10FF5C001C25002000E100E0D41402002DE9F04F34
:10FF6C00A94AAA4913780978A94887B00068019072
:10FF7C00994200F043810133DBB2022B08BF00230E
:10FF8C001370A44A52F823C0019BA14A634423F086
:10FF9C007F431360012303939F4BA04A93F800B057
:10FFAC009F4B1268D3F800A09E4B05921B780293CE
:10FFBC00974B1B680493D8460025114608F1FF386F
:10FFCC005FFA88F8B8F1FF0F4BD00FFA88F30AEB01
:10FFDC00C3041AF833006778BE467045EED000EBC8
:10FFEC004006636894F8029013F836700130C0B282
:04FFFC00814508BF74
:020000022000DC
:100000000020022F03EBC6030DD0032FEBD10AB95A
:10001000E9E71A46D3691574002BFAD119461A4636
:1000200094F801E0DFE75F68002ADCD0974216D041
:10003000164600E01E46F369002BD4D09F42F9D14A
:10004000B742334600F0D080FA693E68DA6112B1F7
:1000500013683344136094F801E00A46C3E7D36998
:1000600017461946002B00F0C5803B46ECE71346C7
:100070000A466D4904980A60684908606C499DF811
:1000800008000870039902931846002940F0D480B4
:10009000059B1B1A18BF012303930D46634B029E59
:1000A0001B6805935D4BDFF88C81D3F800E05E4B55
:1000B000D3F800905E4B1B78049300274FF0010C9F
:1000C00030460BF1FF3B5FFA8BFBBBF1FF0F7BD0A0
:1000D000059B03EBCB0401945DB36A68A9682B46CA
:1000E000ED69CEEB020626F07F4646453FD8314407
:1000F00019605F609F6083F810C0DF6100285FD0E7
:100100001E6801688E423CD98246019C03E011685A
:10011000B1423DD29246DAF81C20761A002AF6D176
:100120000194DA6102461E601046CAF81C30002DA8
:10013000D3D1019A137852789A42C2D0019E5A1CA8
:1001400096F802A07168D2B292453446327008BF68
:10015000224603EB430308BF157011F8332001EB6F
:10016000C306012A736817D002461046DFE7C2EBC8
:100170000E0222F07F42914286BF8A1A1A601F60E7
:10018000B7E7891B1A4601609946D8611046CEE749
:10019000891B01941160C4E793F810A0BAF1000F15
:1001A000E2D1B2685A60F16899603469DC60049CFD
:1001B00076699E61002C94D0C3F804A0524690E763
:1001C0001A4699461046B2E7174BC3F80090029BB7
:1001D0008342064651D1039B002B4ED1144A002383
:1001E000137007B0BDE8F08FD36937461946002B6E
:1001F0007FF43BAF03F1804303F5883301229A601B
:1002000004913B4602921FE74FF0000CCDF80CC062
:10021000C8E600BF1825002019250020042500206D
:100220001C25002010250020082500201425002072
:100230001A250020FEFF7F00002528462C46B3B17A
:100240001968614500F2D880DE681C60C1EB0C0CB7
:100250000844D9693EB1019ADD61821822F07F42DB
:100260009E605A601D460B460A46002BE8D1644941
:10027000029301230A60039310E7002E00F0B98077
:100280006049614BD1F804451B68604DD6F8008089
:100290002878E21A22F07F42033200285BD04245E0
:1002A0002CBF9A1803EB0802564922F07F43C1F88D
:1002B0004035D1F80425121B1B1B22F07F4223F08E
:1002C0007F4303329A4289D9D1F80435C1F84035C9
:1002D0002F20013800BF00BF00BF00BF00BF00BF1C
:1002E00000BF00BF00BF00BF00BF00BF00BF00BF16
:1002F00000BF00BF00BF00BF00BF00BF00BF00BF06
:1003000000BF00BF00BF00BF00BF00BF00BF00BFF5
:1003100000BF00BF00BF00BF00BF00BF00BF00BFE5
:1003200000BF00BF00BF00BF00BF00BF00BF00BFD5
:1003300000BF00BF00BF00BF00BF00BF00BF00BFC5
:1003400000BF00BF00BF00BFC3D1314B4FF400322C
:10035000C3F8002142E72E4F4FF4803C4FF4003E9B
:100360000126C1F844C32F20C1F804C3C7F880E1B7
:10037000C7F800E00E60013800BF00BF00BF00BF3B
:1003800000BF00BF00BF00BF00BF00BF00BF00BF75
:1003900000BF00BF00BF00BF00BF00BF00BF00BF65
:1003A00000BF00BF00BF00BF00BF00BF00BF00BF55
:1003B00000BF00BF00BF00BF00BF00BF00BF00BF45
:1003C00000BF00BF00BF00BF00BF00BF00BF00BF35
:1003D00000BF00BF00BF00BF00BF00BF00BF00BF25
:1003E00000BF00BF00BF00BF00BF00BFC3D12E7061
:1003F00055E7FFF791FCF1E6CCEB0101196036E718
:10040000082500200010014004250020242500209C
:1004100000E100E0F0B512F0030485B003D007243A
:10042000204605B0F0BD002A3ED08DE80F00214DDA
:10043000214E224FFFF770FC029A0199039B2B601B
:100440004FF0030E02F1180301EB4105009887F805
:1004500000E032609E46ED002646536016705670EE
:100460009170083272452B444FF00007F5D11449C2
:10047000144B154ADFF85CE0144E0F604FF4801502
:10048000C02137708EF80070C3F8805183F81413C0
:100490001D60C2F8080583F811130D4ED2F804351B
:1004A0003360204605B0F0BD034B1C600724204696
:1004B00005B0F0BD0C2500201425002010250020DB
:1004C0000825002000E100E000100140192500206F
:1004D0000425002018250020074B1B6823B12AB1F2
:1004E00020B10368187C18B10820704707207047B6
:1004F00059745A61704700BF14250020254B2DE91F
:10050000F0471C682CB120B1042905D80720BDE8AC
:10051000F0870820BDE8F0874369002BF9D0437CC1
:10052000012B0CBF88464FF0000817460E460546C3
:10053000FFF78CFC04EBC00114F830004B788C788A
:100540005A1CD2B2944208BF002290421ED003EB44
:1005500043034868DB00C41818D0DFF83CC0DFF85C
:100560003CE0DCF804954FF0010A00F803A04FF4DA
:10057000801CC4F808906560E660C4F8108067616C
:100580004A700020CEF800C1BDE8F0870420BDE825
:10059000F08700BF142500200010014000E100E0BA
:1005A0001A4B2DE9F0411D6855B348B343693BB37D
:1005B000002404740646FFF749FC05EBC00715F854
:1005C00030107B78B8785A1CD2B2904208BF2246CD
:1005D000914218D003EB43037968DB0011EB030869
:1005E00011D00B4D4FF0020C01F803C04FF4801EE8
:1005F000C8F804607A702046C5F800E1BDE8F081D3
:100600000820BDE8F0810420BDE8F0811425002019
:1006100000E100E0F0B4EFF3108472B60E4B9A687C
:10062000B2B90E4901259D60D1F880700C4D2E465F
:100630003D401D60C1F88060D1F884505D604FF08E
:10064000FF33C1F88430027004B962B6F0BC704761
:1006500001230370F8E700BF3C29002000E100E01F
:10066000FC06FFBC094B9A6872B168B910B4EFF38D
:10067000108272B606491C680C605C684C60986019
:1006800002B962B65DF8044B704700BF3C290020F8
:1006900000E100E030B50E4C207883B010B10020AE
:1006A00003B030BD012500950A490B4A4FF4806321
:1006B00000F056FA10B1082003B030BD0090074991
:1006C000074A102300F082FA0028F4D12570E7E7EA
:1006D00025250020801502003825002088150200FD
:1006E000282500200EB400B582B003AB02AA53F84F
:1006F000041B42F8043D00F037FB02B05DF804EB48
:1007000003B0704752DF704710DF704760DF7047FB
:1007100061DF704708B5FFF7F1FA08BD2DE9F04336
:10072000DFF8C4802D4FDFF8C4902D4ED8F800506C
:100730003C68B5FA85F5B4FA84F483B06D096409B0
:100740004DB13CB303B0BDE8F083D8F80030019858
:1007500098476CB1012401A8FFF7D4FF05282AD0DF
:100760009321204A0028F0D0FFF786FA002CF1D11F
:100770003468B9F80030ADF8043001A92046FFF71D
:10078000C7FF0528E6D090B1B221164AFFF774FAE8
:100790000024D5E702A93468B9F8003021F8043DF7
:1007A0002046FFF7B5FF0528CCD00028ECD1204625
:1007B0003B689847ECE7002CC4D13468B9F80030A6
:1007C000ADF8043001A92046FFF7A2FF05284FF03D
:1007D0000105D8D103B0BDE8F08300BF5029002047
:1007E00048290020901502004C2900203A290020B9
:1007F000F8B50C46074616461D46FFF74BFF0CB1F1
:10080000A30701D00720F8BD1448154B154A046012
:1008100015491D6038461680FFF776FF034600B184
:10082000F8BD124A12490120107091F8162352099E
:10083000901E052809D8043A012A06D90D4A906865
:1008400030B94FF480030B60F8BD42F20200F8BDEE
:10085000116841F4800118461160F8BD4829002054
:10086000542900203A2900201507020038290020C9
:1008700000E100E03C290020034618B1024A0020B4
:10088000136070470E2070475029002008B50A4BAE
:100890001B684BB1984700B908BD4FF4B371074AC4
:1008A000BDE80840FFF7E8B9054B1B78002BF3D0F3
:1008B000BDE80840FFF732BF542900209015020020
:1008C0003829002070B5144605460E461046002112
:1008D000142200F0E3FB227B2672002363F3000264
:1008E0000121657222732361218005B1A17200206C
:1008F00070BD00BF30B583B00D4B0193019B8342A7
:1009000012D04FF080530446D3F80C510949019A94
:10091000AD02002005F100552346FFF7E3FE2A1B38
:1009200000200549FFF7DEFE002003B030BD00BF08
:10093000E81F00205C1602009016020030B583B05C
:10094000184B019302AC019A44F8082D164905464C
:100950000020FFF7C7FE21462846FFF7D7FE009A82
:10096000019B9A42044603D1B0B9204603B030BD82
:100970004FF0805300200D49D3F80C51FFF7B2FE21
:10098000009B0B49C3EB852202F100520020FFF7C8
:10099000A9FE204603B030BD024606490020FFF7FD
:1009A000A1FEFEE7E81F0020B8160200DC160200D8
:1009B00018170200401702002DE9F041C76884684B
:1009C000E41B9442054616460FD84068161B88461D
:1009D0002246384400F044FB08EB040132466868C4
:1009E00000F03EFBEE60BDE8F08140683E443844D4
:1009F00000F036FBEE60BDE8F08100BF2DE9F84362
:100A00008846C5688168064617464FF00009336975
:100A100070689D4203F1FF3426BF03F1FF335B187A
:100A2000631BA1EB050428BF5B1BBC4228BF3C46EF
:100A30009C4228BF1C4641462844224600F010FB39
:100A4000B1682544A94208BF00253F1BA144A0442A
:100A5000F560DCD14846BDE8F88300BFF8B5114C1D
:100A6000114B124AE3614FF4806E0023104FA362D2
:100A700010266362E362A365E36563650D49C4F80C
:100A800020E00225A261A264E01DE76426652561DD
:100A9000656100F033FB2046074900F02FFB20235F
:100AA000A371F8BD682D0020682900205C170200A2
:100AB00058290020681702006C17020070B51C4C02
:100AC00000EB400304EBC3030130DD6A00EB4000A0
:100AD000012D04EBC0000E46144619D008D3022D98
:100AE00002D00024204670BDBDE87040FFF786BFED
:100AF000996A5A6A91429CBF1B6AC91801398A1ABD
:100B00009442EED831462246FFF756FF204670BD8C
:100B1000996A5A6A91429CBF1B6AC91801398A1A9C
:100B2000944228BF144631462246FFF745FFEDE7C1
:100B3000682D0020094B1B780BB1FFF7BFBF00B534
:100B400085B0039202910190FFF788FF01A807C8C2
:100B500005B05DF804EBFFF7B1BF00BF682D0020C2
:100B60002DE9F047184D2E780446884691469A465E
:100B700016B32B691448A34221D944B9A64674443C
:100B800005EBC404089BE3620020BDE8F087661C07
:100B90004FEA440E06EB4606F6000EEB040700EBA8
:100BA000C70781190023BB6240F80680C1F8049092
:100BB000C7F820A07B62E2E7FFF750FFD9E74FF0CC
:100BC000FF30BDE8F08700BF682D00202DE9F84315
:100BD000144D2E780446894690461F46D6B1686962
:100BE000104EA04219D944B92046044405EBC40470
:100BF000089BE3650020BDE8F8836000031906EB5D
:100C0000C3060023B365C6F84890C6F84C80376524
:100C10007365EAE7FFF722FFE1E74FF0FF30BDE839
:100C2000F88300BF682D002010B504468068626814
:100C3000431C934209D822681154E268A360013230
:100C4000E26062689A4203D010BD03469A42FBD12B
:100C500020692168FFF76EFFA368984203D04FF028
:100C6000FF33E36010BD0023A360EDE72DE9F84FEB
:100C70001646B1420F4683461D46DDF828900B9A72
:100C80006BD30B464FF00108B3FBF6F39E4208F11D
:100C90000108F9D9A84538BFA84612F0010A02D1C7
:100CA000B9F1000F39D1DBF80C30002B33DB012414
:100CB00002E0013D06FB04F4012DFAD8B7FBF4F382
:100CC0009E42F7D9274D04E0B4FBF6F45CB1B7FBC4
:100CD000F4F3E95C584604FB1377FFF7A5FFDBF854
:100CE0000C30002BF0DABAF1000F14D0B9F1000F7C
:100CF0002FD0C84502D333E0C1450CD95846202136
:100D0000FFF792FFDBF80C30002B09F1FF3922DBF3
:100D1000B9F1000FF0D1BDE8F88F930714D4202467
:100D2000C14505D8BFE7B9F1000FC0D0C145BED954
:100D300058462146FFF778FFDBF80C30002B09F10D
:100D4000FF39F0DABDE8F88F002D14BF20243024DD
:100D5000E6E7BDE8F88FBDE8F88F4FF0010899E7A6
:100D6000BDE8F88F741702002DE9F04F9BB00446E0
:100D700000230390174640200AAADFF8C082099496
:100D80000D46059206900793089315F8011B00295C
:100D900000F01781252958D129464FF000090D464A
:100DA00011F8013BA3F123000D2814D8DFE800F06F
:100DB00010131313131313130D130A13130749F00E
:100DC0000209ECE749F00109E9E749F00409E6E71F
:100DD00049F00809E3E7A3F13001092998BF00248D
:100DE0006AD804EB840403EB440415F8013FA3F133
:100DF00030010929A4F13004F3D92E2B36D02978FB
:100E00004FF0000A01E015F8011B01F0FB00682813
:100E1000F9D0642962D01DD9732900F0B7803BD97D
:100E200075294BD138680168009404303860534606
:100E300005A8CDF804900A22FFF718FF089801359D
:100E40000028A2DA1BB0BDE8F08F05A8FFF7ECFE82
:100E50000898F5E7582933D0632900F0A98025299F
:100E600002D105A8FFF7E0FE0898E8E76978A1F14C
:100E70003003092B05F101054FF0000AC5D80AEB34
:100E80008A0301EB430315F8011FA1F13000092883
:100E9000A3F1300AF3D9B8E77029E5D13B68002007
:100EA00019681A1D08233A600190009305A81022C2
:100EB000FFF7DCFE0898C2E700249EE77829D3D12B
:100EC00038680168009404303860534605A8CDF8AE
:100ED00004901022FFF7CAFE0898B0E73968D1F8ED
:100EE00000B0081D8BEAEB71A1EBEB7109293860AA
:100EF0004FF0010608DD88FB0130C917C1EBA001E6
:100F0000092906F10106F6DC564538BF564634B1CC
:100F1000BBF1000F02DB19F0040F00D0013C19F007
:100F2000020F28D119F0010F28D13CB3B44202D8E6
:100F300024E0B4420BD905A82021FFF775FE0898DC
:100F4000002804F1FF34FFF67AAF002CF1D1BBF199
:100F5000000F48DB19F0040F6AD109F003010229E0
:100F60004FD005A88DE81002594653460A22FFF7D4
:100F70007DFE089863E7BAF1000FD3D108980028E6
:100F8000FFF65DAFBBF1000FE4DA2CE03B681A1D01
:100F90003A601C6805E0FFF747FE08980028FFF656
:100FA0004EAF14F8013B05A81946002BF3D15BE7BF
:100FB0003B681A1D05A83A601978FFF735FE0898B6
:100FC0003DE7089800287FF73DAF079A1AB910440B
:100FD0001BB0BDE8F08F03980AA9FFF7ABFD089896
:100FE000079A1044F4E705A82D21CBF1000BFFF779
:100FF0001BFE08980028FFF622AF09F00301022922
:10100000AFD1BAF1000FACD184B1A64202D3A8E7A8
:10101000B442A6D905A83021FFF706FE089800289B
:1010200004F1FF34FFF60BAF002CF1D1002498E758
:1010300005A82B21FFF7F8FDDBE700BF67666666B2
:101040000EB400B582B003AB02AA53F8041B42F8F9
:10105000043DFFF789FE02B05DF804EB03B0704772
:10106000844640EA010313F0030F0DD1242A0BD369
:101070002DE9F00FB1E8F80FA0E8F80FA2F1240273
:10108000242AF7D2BDE8F00F002A05D011F8013B61
:1010900000F8013B013AF9D1604670478446002AC6
:1010A0002AD010F0030F04D000F8011B013A23D01E
:1010B000F7E7282A1CD3A2F128022DE9F00F01F04E
:1010C000FF0141EA012141EA014141EA01610B4688
:1010D0000C460D460E460F46884689468A468B4684
:1010E000A0E8FA0F283AFBD2BDE8F00F283203D06F
:1010F00000F8011B013AFBD160467047024610F030
:10110000030F16D111F0030F13D12DE9F0004FF0AA
:1011100001374FF0803351F8044BA4EB070525EA63
:1011200004051D4002D142F8044BF4E7A1F104018B
:10113000F0BC11F8013B02F8013B002BF9D17047DC
:1011400000F1010110F0030F11D010F8012B002A5B
:1011500023D010F0030F0AD010F8012B002A1CD066
:1011600010F0030F03D010F8012B002A15D02DE941
:1011700070004FF001324FF0803350F8044BA4EB75
:10118000020525EA04051D4000D1F6E7A0F10400A0
:1011900070BC10F8012B002AFBD1A0EB01007047B6
:1011A00001000007433A2F55736572732F6D617309
:1011B000692F446F63756D656E74732F476974484A
:1011C00075622F53444B2031312F6578616D706CFF
:1011D00065732F626C655F706572697068657261B6
:1011E0006C2F506879736963616C5F5765625F54F7
:1011F0006F795F53444B5F31312F70636131303011
:1012000034302F733133322F61726D355F6E6F5F03
:101210007061636B732F2E2E2F2E2E2F2E2E2F6D7F
:1012200061696E2E6300000025640D0A0000000055
:101230000D0A0A25640A0D0A0000000057484954A7
:1012400045204341520000000C220020AAFE01006C
:10125000433A2F55736572732F6D6173692F446F15
:1012600063756D656E74732F4769744875622F538B
:10127000444B2031312F6578616D706C65732F623E
:101280006C655F7065726970686572616C2F50681B
:1012900079736963616C5F5765625F546F795F53FF
:1012A000444B5F31312F70636131303034302F73F4
:1012B0003133322F61726D355F6E6F5F7061636BBA
:1012C000732F2E2E2F2E2E2F2E2E2F6164766572C9
:1012D000746973696E672E630000000019000000D6
:1012E00018000000000098010300000000400040CA
:1012F00001000000060A0E12161E1A22262A2E329D
:10130000363A3E420010FE06000000A11B0000001D
:101310001A000000000098010300000000300040A7
:10132000000000001B0000001A00000000009801EF
:1013300003000000190000001800000000009801E0
:101340000600000023D1BCEA5F782315DEEF1212FD
:1013500000000000000102030405060708090A0B4B
:101360000C0D0E0F100000000A0A49522D73696718
:101370006E616C20696E20626974732C20776865D9
:10138000726520616E204F46462D7369676E616CF1
:10139000206F662031363930206973206C6F6769A1
:1013A00063616C203120616E6420353630206973B2
:1013B000206C6F676963616C20300A56616C7565DB
:1013C00020746F2062652073656E742061732069DC
:1013D00072207369676E616C3A2025640A4F4E096A
:1013E0004F46462028696E206D6963726F7365638E
:1013F0006F6E6473290A0000256400000925640AE1
:1014000000000000433A2F55736572732F6D6173AE
:10141000692F446F63756D656E74732F47697448E7
:1014200075622F53444B2031312F6578616D706C9C
:1014300065732F626C655F70657269706865726153
:101440006C2F506879736963616C5F5765625F5494
:101450006F795F53444B5F31312F706361313030AE
:1014600034302F733133322F61726D355F6E6F5FA1
:101470007061636B732F2E2E2F2E2E2F2E2E2F701A
:10148000657269705F70776D2E63000048200020E0
:10149000040000000000000000000000CC23002039
:1014A000000003060000000000000006000000002D
:1014B0000000000600000000000000060000000020
:1014C00000000006000000000203040506040000FE
:1014D000E8030000433A2F55736572732F6D6173F3
:1014E000692F446F63756D656E74732F4769744817
:1014F00075622F53444B2031312F6578616D706CCC
:1015000065732F626C655F70657269706865726182
:101510006C2F506879736963616C5F5765625F54C3
:101520006F795F53444B5F31312F706361313030DD
:1015300034302F733133322F61726D355F6E6F5FD0
:101540007061636B732F2E2E2F2E2E2F2E2E2F2E8B
:101550002E2F2E2E2F2E2E2F636F6D706F6E656EB9
:1015600074732F6C69627261726965732F74696D2F
:1015700065722F6170705F74696D65722E63000013
:101580004E6F726D616C0000496E707574000000E2
:10159000433A2F55736572732F6D6173692F446FD2
:1015A00063756D656E74732F4769744875622F5348
:1015B000444B2031312F6578616D706C65732F62FB
:1015C0006C655F7065726970686572616C2F5068D8
:1015D00079736963616C5F5765625F546F795F53BC
:1015E000444B5F31312F70636131303034302F73B1
:1015F0003133322F61726D355F6E6F5F7061636B77
:10160000732F2E2E2F2E2E2F2E2E2F2E2E2F2E2EB0
:101610002F2E2E2F636F6D706F6E656E74732F7328
:101620006F66746465766963652F636F6D6D6F6E49
:101630002F736F66746465766963655F68616E6455
:101640006C65722F736F66746465766963655F6835
:10165000616E646C65722E630000000052414D2083
:10166000535441525420414444522030782578202C
:1016700073686F756C642062652061646A75737449
:10168000656420746F20307825780D0A0000000012
:1016900052414D2053495A452073686F756C642040
:1016A00062652061646A757374656420746F2030AC
:1016B000782578200D0A000073645F626C655F65B1
:1016C0006E61626C653A2052414D20535441525430
:1016D00020617420307825780D0A000073645F6201
:1016E0006C655F656E61626C653A206170705F72F7
:1016F000616D5F626173652073686F756C642062F1
:10170000652061646A757374656420746F20307835
:1017100025780D0A0000000072616D2073697A65FA
:101720002073686F756C642062652061646A7573EC
:1017300074656420746F2030782578200D0A0000CD
:1017400073645F626C655F656E61626C653A2065AB
:1017500072726F7220307825780D0A005465726DB0
:10176000696E616C000000005254540053454747B5
:101770004552000030313233343536373839414242
:041780004344454653
:1017840000A0014003060000FFFF000010EE006708
:101794006F6F2E676C2F364D465355780000FF024D
:1017A400FED4022A000000000000FF05FBD414014F
:1017B400140102000000FF04FCD44A0100E100010E
:1017C400262A2E0A00003A32360B01000E16120C9D
:1017D4000200221A1E0D030080402010080402019A
:1017E4000A0014002800500000C00140000000005E
:0417F4000090D0038E
:040000031000C4E540
:00000001FF
