:020000021000EC
:10C000000000012095C60100C9C60100CBC6010091
:10C010000000000000000000000000000000000020
:10C02000000000000000000000000000CDC601007C
:10C030000000000000000000CFC60100D1C60100D2
:10C04000D5C60100D7C60100091E020035E801006F
:10C050004DE80100DFC60100D5150200E3C601006E
:10C06000551F0200E7C6010009F30100EBC60100FD
:10C07000EDC60100EFC60100F1C60100F3C60100E4
:10C08000F5C601005D2E0200F9C60100FBC60100E5
:10C090009D2E0200FFC601003135020003C70100DA
:10C0A00005C7010007C701006D1F0200851F0200C0
:10C0B0000DC701000FC70100D3C60100D3C60100A0
:10C0C00011C7010013C7010015C7010017C7010000
:08C0D00019C701001BC70100A4
:10C0D80080B400AFBFF34F8F0549054BDB6803F40D
:10C0E800E062044B1343CB60BFF34F8FFEE700BF02
:10C0F80000ED00E00400FA0580B400AF034B044AE9
:10C108001A60BD465DF8047B704700BF40200020E0
:10C118000090D00380B500AF00F002F90346002B71
:10C1280006D0784A784B1B6803F460435B0B1360B6
:10C1380000F03CF90346002B05D0744A734BDB68CA
:10C1480023F08073D36000F05BF90346002B0ED018
:10C158004FF080430022C3F80C214FF080430022A7
:10C16800C3F810214FF080430022C3F8382500F0AF
:10C178008DF90346002B02D0654B03221A6000F0AC
:10C18800AFF90346002B76D0624A4FF08053D3F8BC
:10C198000434C2F820355F4A4FF08053D3F808348E
:10C1A800C2F824355B4A4FF08053D3F80C34C2F8F8
:10C1B8002835584A4FF08053D3F81034C2F82C353C
:10C1C800544A4FF08053D3F81434C2F83035514AEA
:10C1D8004FF08053D3F81834C2F834354D4A4FF035
:10C1E8008053D3F81C34C2F840354A4A4FF0805384
:10C1F800D3F82034C2F84435464A4FF08053D3F878
:10C208002434C2F84835434A4FF08053D3F82834D1
:10C21800C2F84C353F4A4FF08053D3F82C34C2F85B
:10C2280050353C4A4FF08053D3F83034C2F8543577
:10C23800384A4FF08053D3F83434C2F86035354A61
:10C248004FF08053D3F83834C2F86435314A4FF090
:10C258008053D3F83C34C2F868352E4A4FF08053E7
:10C26800D3F84034C2F86C352A4A4FF08053D3F8DB
:10C278004434C2F87035284A274BD3F8883043F441
:10C288007003C2F88830BFF34F8FBFF36F8F4FF042
:10C298001023D3F80032002B05DB4FF01023D3F81E
:10C2A8000432002B2BDA1D4B0122C3F8042500BFF2
:10C2B8001A4BD3F80034002BFAD04FF01023152274
:10C2C800C3F8002200BF154BD3F80034002BFAD076
:10C2D8004FF010231522C3F8042200BF0F4BD3F8E8
:10C2E8000034002BFAD00D4B0022C3F8042500BF00
:10C2F8000A4BD3F80034002BFAD0FFF7E9FEFFF71A
:10C30800FBFE80BD3C05004044020010F0ED00E05B
:10C31800A005004000C0004000ED00E000E0014042
:10C3280080B400AF1D4B1B68DBB2062B2FD11C4B12
:10C338001B6803F00F03002B29D11A4B1B6803F06D
:10C34800F003302B07D1184B1B6803F0F003002BC8
:10C3580001D101231CE0134B1B6803F0F003402BB1
:10C3680007D1114B1B6803F0F003002B01D1012307
:10C378000EE00C4B1B6803F0F003502B07D10A4B5F
:10C388001B6803F0F003002B01D1012300E0002318
:10C398001846BD465DF8047B704700BFE00F00F00B
:10C3A800E40F00F0E80F00F0EC0F00F080B400AFED
:10C3B8000F4B1B68DBB2062B13D10E4B1B6803F027
:10C3C8000F03002B0DD10C4B1B6803F0F003302B2F
:10C3D80007D10A4B1B6803F0F003002B01D101239E
:10C3E80000E000231846BD465DF8047B704700BF97
:10C3F800E00F00F0E40F00F0E80F00F0EC0F00F0A1
:10C4080080B400AF1D4B1B68DBB2062B2FD11C4B31
:10C418001B6803F00F03002B29D11A4B1B6803F08C
:10C42800F003302B07D1184B1B6803F0F003002BE7
:10C4380001D101231CE0134B1B6803F0F003402BD0
:10C4480007D1114B1B6803F0F003002B01D1012326
:10C458000EE00C4B1B6803F0F003502B07D10A4B7E
:10C468001B6803F0F003002B01D1012300E0002337
:10C478001846BD465DF8047B704700BFE00F00F02A
:10C48800E40F00F0E80F00F0EC0F00F080B400AF0C
:10C498000F4B1B68DBB2062B13D10E4B1B6803F046
:10C4A8000F03002B0DD10C4B1B6803F0F003302B4E
:10C4B80007D10A4B1B6803F0F003002B01D10123BD
:10C4C80000E000231846BD465DF8047B704700BFB6
:10C4D800E00F00F0E40F00F0E80F00F0EC0F00F0C0
:10C4E80080B400AF0F4B1B68DBB2062B13D10E4B89
:10C4F8001B6803F00F03002B0DD10C4B1B6803F0D6
:10C50800F003502B07D10A4B1B6803F0F003002BF4
:10C5180001D1012300E000231846BD465DF8047BE5
:10C52800704700BFE00F00F0E40F00F0E80F00F0E4
:10C53800EC0F00F0354936480A1A02D00722914319
:10C548008D46344934480A1A06D00722914381F3AC
:10C558000988022282F3148830483149314A00F0B0
:10C5680043F831483149324A00F03EF831483249FF
:10C57800324A00F039F832483249334A00F034F888
:10C5880032483349334A00F02FF833483349344AA4
:10C5980000F02AF833483449344A00F025F8344882
:10C5A8003449002200F02BF833483449002200F0C7
:10C5B80026F833483349091A082903DB00220260A8
:10C5C800043001601F482049884205D002680430C1
:10C5D80003B4904703BCF7E700208646EC460020EA
:10C5E8000021294A9047FEE7884207D0521A05D011
:10C5F800037801300B700131013AF9D17047884254
:10C6080002D002700130FAE77047000000000120F4
:10C6180000F800200000012000000120004802006E
:10C62800E81F0020442000201CC701001CC701008F
:10C638000843020000480200E81F0020E81F00200D
:10C6480008430200084302000843020008430200AE
:10C65800084302000843020008430200084302009E
:10C66800004802005C4802004420002044200020CA
:10C6780044200020842D0020842D0020842D0020BB
:10C68800842D0020842E0020F1D10100084809499A
:10C6980088438546084880470848016841F4700186
:10C6A8000160BFF34F8FBFF36F8FFFF743BF0000E9
:10C6B80000000120070000001DC1010088ED00E016
:10C6C800FEE7FEE7FEE7FEE7FEE7FEE7FEE7FEE73A
:10C6D800FEE7FEE7FEE7FEE7FEE7FEE7FEE7FEE72A
:10C6E800FEE7FEE7FEE7FEE7FEE7FEE7FEE7FEE71A
:10C6F800FEE7FEE7FEE7FEE7FEE7FEE7FEE7FEE70A
:10C70800FEE7FEE7FEE7FEE7FEE7FEE7FEE7FEE7F9
:04C71800FEE7FEE753
:10C71C0080B483B000AF7860084611461A460346D1
:10C72C00FB700B46BB7013467B704FF0A041FA7840
:10C73C00BB785B001A437B789B001A433B7C1B0243
:10C74C001A433B7D1B041A437B6803F5E07341F8E5
:10C75C0023200C37BD465DF8047B704780B584B050
:10C76C0002AF7860002300930023019378680121C5
:10C77C0001220023FFF7CCFF0837BD4680BD00BF68
:10C78C0080B483B000AF78604FF0A0427B68012189
:10C79C0001FA03F3C2F808350C37BD465DF8047B8B
:10C7AC00704700BF80B483B000AF78604FF0A042F8
:10C7BC007B68012101FA03F3C2F80C350C37BD4636
:10C7CC005DF8047B704700BF70DF7047184600BFF0
:10C7DC0071DF7047184600BF73DF7047184600BF03
:10C7EC0076DF7047184600BF7ADF7047184600BFE7
:10C7FC007CDF7047184600BF7FDF7047184600BFCC
:10C80C00A9DF7047184600BF48DF7047184600BFC5
:10C81C0080B400AF0A4B1B78002B03D1084B0122CC
:10C82C001A7005E0064B1B780133DAB2044B1A7010
:10C83C00034B1B781846BD465DF8047B704700BF60
:10C84C006220002080B582B000AF0023FB710CE0A9
:10C85C00FB790C331846FFF781FFFB790C33184634
:10C86C00FFF7A0FFFB790133FB71FB79002BEFD0B5
:10C87C001120FFF773FF1220FFF770FF1320FFF753
:10C88C006DFF1420FFF76AFF1120FFF779FF1220CC
:10C89C00FFF776FF1320FFF773FF1420FFF770FFED
:10C8AC000320FFF75BFF0320FFF77CFF0837BD4633
:10C8BC0080BD00BF80B586B000AF0346FB8000236F
:10C8CC007B618BE00320FFF75BFFFB88FB60FB6861
:10C8DC001846013800BF00BF00BF00BF00BF00BF3B
:10C8EC0000BF00BF00BF00BF00BF00BF00BF00BF44
:10C8FC0000BF00BF00BF00BF00BF00BF00BF00BF34
:10C90C0000BF00BF00BF00BF00BF00BF00BF00BF23
:10C91C0000BF00BF00BF00BF00BF00BF00BF00BF13
:10C92C0000BF00BF00BF00BF00BF00BF00BF00BF03
:10C93C0000BF00BF00BF00BF00BF00BF00BF00BFF3
:10C94C0000BF00BF00BF00BFC3D10320FFF72AFF09
:10C95C00FB883B613B691846013800BF00BF00BF34
:10C96C0000BF00BF00BF00BF00BF00BF00BF00BFC3
:10C97C0000BF00BF00BF00BF00BF00BF00BF00BFB3
:10C98C0000BF00BF00BF00BF00BF00BF00BF00BFA3
:10C99C0000BF00BF00BF00BF00BF00BF00BF00BF93
:10C9AC0000BF00BF00BF00BF00BF00BF00BF00BF83
:10C9BC0000BF00BF00BF00BF00BF00BF00BF00BF73
:10C9CC0000BF00BF00BF00BF00BF00BF00BFC3D18E
:10C9DC00FB885B001A467B6913447B617B694CF2D4
:10C9EC004F3293427FF66EAF1837BD4680BD00BF05
:10C9FC0080B582B000AF00200421094A002306F064
:10CA0C004DFA78607B683B603B68002B04D038683B
:10CA1C009C21044A05F006FB0837BD4680BD00BFCB
:10CA2C00882000200C43020080B586B000AF3B7814
:10CA3C00012262F303033B703B78012262F307137C
:10CA4C003B701B4807F02AFC03469BB23A46104643
:10CA5C0017491A46FFF7CCFE78617B693B613B694D
:10CA6C00002B04D03869AF21124A05F0DBFA3B1DCC
:10CA7C0018460021082207F0BFFB1023BB80282397
:10CA8C00FB8000233B814FF4C8737B813B1D184610
:10CA9C00FFF7AAFE78617B69FB60FB68002B04D072
:10CAAC00F868B921034A05F0BDFA1837BD4680BDB8
:10CABC00904302000C43020080B5A0B000AF41F2DD
:10CACC002353BB80194B9B7CBB7107F14003184669
:10CADC000021382207F090FB022387F84030012315
:10CAEC0087F84230062387F8433007F108031846CD
:10CAFC000021382207F080FB01233B833B1DFB61A7
:10CB0C0007F1400207F108031046194603F042FEF4
:10CB1C00F867FB6FBB67BB6F002B04D0B86FD921D4
:10CB2C00034A05F07FFA8037BD4680BD44200020C3
:10CB3C000C43020080B584B000AF7860396038686F
:10CB4C0000F012FE3868052100F0B2FF0346FB73BB
:10CB5C00FB7B184602F082F838680121002200F0B5
:10CB6C008DFF0346002B02D0386802F0E9F83868D4
:10CB7C000121012200F082FF0346002B03D00C2080
:10CB8C00FFF7FEFD02E00C20FFF70CFE1037BD4650
:10CB9C0080BD00BF80B584B000AF0B4B7B603B1DEC
:10CBAC000A48194601F0DCFFF860FB68BB60BB6803
:10CBBC00002B05D0B8684FF48371054A05F032FAA2
:10CBCC001037BD4680BD00BF41CB01004420002082
:10CBDC000C43020080B584B000AF78607B681B7892
:10CBEC00002B11D10A4B1B8818463B21FFF7F8FD8F
:10CBFC00F860FB68BB60BB68002B05D0B8684FF4CD
:10CC0C008E71044A05F00EFA1037BD4680BD00BF88
:10CC1C00E81F00200C43020080B582B000AF7860A2
:10CC2C00786840F22711034A05F0FCF90837BD4635
:10CC3C0080BD00BF0C43020080B58AB000AF3B1D25
:10CC4C00184600211C2207F0D7FA00237B604FF412
:10CC5C002023BB604FF42033FB6003233B74002381
:10CC6C007B8200233B750B4BBB610B4BFB613B1D6C
:10CC7C00184603F0A5FE78627B6A3B623B6A002B88
:10CC8C0005D0386A4FF49F71044A05F0CBF9283768
:10CC9C00BD4680BDE1CB010025CC01000C43020058
:10CCAC0080B588B000AF3B4618460021182207F02B
:10CCBC00A3FA00233B7000237B6000233B724023CC
:10CCCC003B8200237B823B461846FFF785FDF861CB
:10CCDC00FB69BB61BB69002B05D0B86940F25311ED
:10CCEC00044A05F09FF91220FFF75CFD2037BD4682
:10CCFC0080BD00BF0C43020080B582B000AF7860ED
:10CD0C001A4B1B7883F00103DBB2002B27D0184B96
:10CD1C001B7803F00103DBB2002B02D100F09AFA6E
:10CD2C0001E0FFF7C9FE124B1B780133DAB2104B4E
:10CD3C001A700F4B1B7803F00103DBB2002B0AD1E6
:10CD4C000A4B1B7883F00103DBB2002B03D01220BB
:10CD5C00FFF728FD06E01220FFF712FD02E012207B
:10CD6C00FFF70EFD0837BD4680BD00BF60200020D8
:10CD7C008420002080B588B000AF78607B681B8869
:10CD8C00112B22D0112B02DC102B05D066E0132BBB
:10CD9C0038D0522B4CD061E01120FFF703FD7B689B
:10CDAC009A88304B1A8005F0F3F8F861FB69BB6187
:10CDBC00BB69002B05D0B8694FF4C2712A4A05F043
:10CDCC0031F92A4B01221A7048E01120FFF7D8FCE8
:10CDDC00244B4FF6FF721A8005F0FCF8F861FB69E2
:10CDEC007B617B69002B05D078694FF4C7711E4AB3
:10CDFC0005F018F91D4B00221A70FFF751FF00F0D7
:10CE0C003DFC2BE0174B1B88184685210022002384
:10CE1C00FFF7F2FCF861FB693B613B69002B06D024
:10CE2C00386940F29B11104A05F0FCF816E015E049
:10CE3C000C4B1B881846002100220023FFF7E0FC56
:10CE4C00F861FB69FB60FB68002B06D0F86840F2C8
:10CE5C00A111054A05F0E6F8FFE700BF2037BD46F3
:10CE6C0080BD00BFE81F00200C43020060200020A2
:10CE7C0080B582B000AF78607868FFF77BFF786888
:10CE8C0003F0D0FE0348796801F030FD0837BD4649
:10CE9C0080BD00BF4420002080B592B000AF404A56
:10CEAC0007F11C031068186007F11C0318463D4974
:10CEBC004822002306F0DEFA78647B6C3B643B6C02
:10CECC00002B05D0386C4FF4E071374A05F0AAF806
:10CEDC0007F10803002001211A4606F045FBF86310
:10CEEC00FB6BBB63BB6B002B05D0B86B40F2C51161
:10CEFC002D4A05F097F82D4B7B63786B06F07CFB85
:10CF0C00F863FB6B3B633B6B002B05D0386B4FF42A
:10CF1C00E471254A05F086F807F10803184606F077
:10CF2C0095FBF863FB6BFB62FB6A002B05D0F86A80
:10CF3C004FF4E6711C4A05F075F83B461846FFF7AE
:10CF4C0047FCF863FB6BBB62BB6A002B05D0B86A6D
:10CF5C0040F2D111144A05F065F83B460020194601
:10CF6C00FFF732FCF863FB6B7B627B6A002B05D00E
:10CF7C00786A40F2D3110C4A05F054F80C4806F0CC
:10CF8C00BBFAF863FB6B3B623B6A002B05D0386A3B
:10CF9C0040F2D711044A05F045F84837BD4680BD2C
:10CFAC009C430200082200200C430200E81F0020D2
:10CFBC007DCE010080B582B000AF78600B46FB706F
:10CFCC007B680D2B05D07B680E2B02D07B680F2B5A
:10CFDC0032D1FFF71DFC03461A463A4B1A7040F249
:10CFEC00EC50FFF767FC322003F042FE40F2476042
:10CFFC00FFF760FC7B680D2B07D1324B1B78324856
:10D00C001946002201F0FEFD15E07B680E2B07D1BE
:10D01C002C4B1B782C481946012201F0F3FD0AE039
:10D02C007B680F2B07D1274B1B7827481946022208
:10D03C0001F0E8FD43E042E07B68102B3FD100F0AB
:10D04C00D1F903461A46214B1A70204B1B781E4807
:10D05C001946042201F0D6FD1C4B1A781C4BA3FB7D
:10D06C00021319090B469B000B449B00D31ADBB22D
:10D07C00002B24D14FF48660FFF71CFC022001F03A
:10D08C00EDFD0A2003F0F4FD4FF47D70FFF712FC68
:10D09C00012001F0E3FD0A2003F0EAFD40F2BB3071
:10D0AC00FFF708FC022001F0D9FD0A2003F0E0FD97
:10D0BC0040F28530FFF7FEFB002001F0CFFD083772
:10D0CC00BD4680BD6220002044200020612000204D
:10D0DC00CDCCCCCC80B584B000AF04F075F9034650
:10D0EC0083F00103DBB2002B02D004F035F9F860B9
:10D0FC00FB68BB60BB68002B05D0B86840F20A2106
:10D10C00204A04F08FFF03233B7100237B71002323
:10D11C00BB710023FB7100237B7103233B70002345
:10D12C007B700023BB700023FB7001237B703B1DC5
:10D13C000D201946144A04F059F93B1D0E201946CE
:10D14C00114A04F053F93B1D0F2019460E4A04F006
:10D15C004DF93B46102019460B4A04F047F90D20B7
:10D16C00012104F09DF90E20012104F099F90F2002
:10D17C00012104F095F91020012104F091F91037E8
:10D18C00BD4680BD0C430200C1CF010080B500AF8D
:10D19C0006480121064A05F0FDFE064B184642F2F0
:10D1AC006661002205F044FF80BD00BF0843020009
:10D1BC0005CD01006420002080B582B000AFFFF7E0
:10D1CC0023FB78607B683B603B68002B05D038689C
:10D1DC0040F22A21024A04F025FF0837BD4680BDE3
:10D1EC000C43020080B500AFFFF774FFFFF72AFB7A
:10D1FC0001F0A0FDFFF7FCFBFFF74EFEFFF714FC60
:10D20C00FFF7C8FCFFF758FCFFF716FDFFF7BEFF52
:10D21C00FFF746FD00F044F900F002F90B2001F095
:10D22C0067FF002001F01AFD40F24760FFF742FB58
:10D23C001E2003F01DFD40F2EC50FFF73BFB1E20BF
:10D24C0003F016FD40F29750FFF734FBFFF7B4FFE5
:10D25C00FCE700BF80B598B000AF062387F85F30BD
:10D26C001E4A07F11803106818601D4B7B611023D0
:10D27C003B824FF6AA63BB8007F1080307F110024B
:10D28C0092E8030083E8030007F11C031846002111
:10D29C00382206F0B1FF00233B7797F85F30FB771D
:10D2AC000123BB8507F118033B633B1D7B64012302
:10D2BC0087F8483007F11C031846002103F06AFA7E
:10D2CC00B865BB6D7B657B6D002B04D0786D372109
:10D2DC00044A04F0A7FE6037BD4680BD2C44020012
:10D2EC00EC1F0020A043020080B483B000AF786034
:10D2FC004FF0A0427B68012101FA03F3C2F8083514
:10D30C000C37BD465DF8047B704700BF80B483B01A
:10D31C0000AF78604FF0A0427B68012101FA03F363
:10D32C00C2F80C350C37BD465DF8047B704700BF66
:10D33C0080B582B002AF0023009325482421254AF2
:10D34C00092301F079F9032003F092FC20482421F1
:10D35C00214A072301F09EF9032003F089FC1C48A5
:10D36C0024211D4A0E2301F095F9032003F080FCC3
:10D37C000023009316482421184A0C2301F05CF971
:10D38C00032003F075FC12482421134A072301F0F3
:10D39C0081F9032003F06CFC0D4824210E4A09236B
:10D3AC0001F078F9032003F063FC00230093084894
:10D3BC0024210B4A0B2301F03FF9032003F058FC06
:10D3CC0003482421044A072301F064F9BD4680BDBB
:10D3DC0030440200FC1F00205022002008200020B6
:10D3EC001420002080B500AF1420FFF78FFFFFF74B
:10D3FC009FFF0A4B1B78002B03D1084B01221A709C
:10D40C0005E0064B1B780133DAB2044B1A7014207A
:10D41C00FFF76AFF014B1B78184680BD6120002086
:10D42C0090B585B000AF0A4B3C460FCB84E80F009B
:10D43C003B46084819460022002300F0C9FD054868
:10D44C0000F040FEFFF774FF1437BD4690BD00BFDF
:10D45C00384402003044020080B483B000AF7860DE
:10D46C004FF0A0427B68012101FA03F3C2F80835A2
:10D47C000C37BD465DF8047B704700BF80B483B0A9
:10D48C0000AF78604FF0A0427B68012101FA03F3F2
:10D49C00C2F80C350C37BD465DF8047B704700BFF5
:10D4AC0090B585B000AF0A4B3C460FCB84E80F001B
:10D4BC003B46084819460022002300F089FD054828
:10D4CC0000F000FE00F008F81437BD4690BD00BF18
:10D4DC00504402004844020080B58AB002AF0023D9
:10D4EC003B7700237B7700233B76624A07F11003DE
:10D4FC001068516803C307F11C02002300935E48B7
:10D50C006021022301F098F807F118020023009320
:10D51C0059486021012301F08FF81320FFF7AEFF6B
:10D52C000123FB7307F10F03534860211A460123B3
:10D53C0001F0B0F805237B607B681846013800BF0A
:10D54C0000BF00BF00BF00BF00BF00BF00BF00BFD7
:10D55C0000BF00BF00BF00BF00BF00BF00BF00BFC7
:10D56C0000BF00BF00BF00BF00BF00BF00BF00BFB7
:10D57C0000BF00BF00BF00BF00BF00BF00BF00BFA7
:10D58C0000BF00BF00BF00BF00BF00BF00BF00BF97
:10D59C0000BF00BF00BF00BF00BF00BF00BF00BF87
:10D5AC0000BF00BF00BF00BF00BF00BF00BF00BF77
:10D5BC0000BFC3D1FB7B002BB4D11320FFF74CFF72
:10D5CC000023FB770EE0FB7F07F110025B001A448F
:10D5DC000023009328486021022301F02DF8FB7FE3
:10D5EC000133FB77FB7F032BEDD91423BB60BB68A6
:10D5FC001846013800BF00BF00BF00BF00BF00BF0E
:10D60C0000BF00BF00BF00BF00BF00BF00BF00BF16
:10D61C0000BF00BF00BF00BF00BF00BF00BF00BF06
:10D62C0000BF00BF00BF00BF00BF00BF00BF00BFF6
:10D63C0000BF00BF00BF00BF00BF00BF00BF00BFE6
:10D64C0000BF00BF00BF00BF00BF00BF00BF00BFD6
:10D65C0000BF00BF00BF00BF00BF00BF00BF00BFC6
:10D66C0000BF00BF00BF00BFC3D100F007F82037D8
:10D67C00BD4680BD604402004844020090B58BB0AA
:10D68C0002AF00233B7600237B760023BB7600237E
:10D69C00FB7600233B77324B07F108041868596876
:10D6AC009A68DB680FC40023FB7752E0FB7F07F11D
:10D6BC002002134413F8183C3B7607F118020023A0
:10D6CC00009328486021052300F0B6FF05237B60FA
:10D6DC007B681846013800BF00BF00BF00BF00BF09
:10D6EC0000BF00BF00BF00BF00BF00BF00BF00BF36
:10D6FC0000BF00BF00BF00BF00BF00BF00BF00BF26
:10D70C0000BF00BF00BF00BF00BF00BF00BF00BF15
:10D71C0000BF00BF00BF00BF00BF00BF00BF00BF05
:10D72C0000BF00BF00BF00BF00BF00BF00BF00BFF5
:10D73C0000BF00BF00BF00BF00BF00BF00BF00BFE5
:10D74C0000BF00BF00BF00BF00BFC3D1FB7F0133D0
:10D75C00FB77FB7F0F2BA9D92437BD4690BD00BFAB
:10D76C006844020048440200F0B585B000AF786010
:10D77C001320FFF783FE0023FB733FE0FA7B244961
:10D78C0013465B0013445B000B445D78FA7B204925
:10D79C0013465B0013445B000B449C78FA7B1C49DA
:10D7AC0013465B0013445B000B441B7978680E2115
:10D7BC001A4600F063F903461E46FB7B28462146B9
:10D7CC001A46334600F04EF8FA7B114913465B00BB
:10D7DC0013445B000B441878FA7B0D4913465B002D
:10D7EC0013445B000B44DB781A467B6813441B78AC
:10D7FC00194600F00FF8FB7B0133FB73FB7B032B0B
:10D80C00BCD91320FFF728FE1437BD46F0BD00BF6E
:10D81C002020002080B586B002AF03460A46FB717B
:10D82C001346BB71FB793B7200237B720023BB72E6
:10D83C000023FB7200233B73BB791B01DBB2FB7231
:10D84C00BB791B09DBB23B7307F108020023009381
:10D85C0003486021052300F0EFFE1037BD4680BD64
:10D86C004844020090B58FB002AF044608461146FA
:10D87C001A462346FB710346BB710B467B7113465C
:10D88C003B717A797B4913465B0013445B000B4474
:10D89C005B793A799A4200F0EA807A7975491346B5
:10D8AC005B0013445B000B445B79002B70D1BB799C
:10D8BC0087F82830002387F82930002387F82A308E
:10D8CC00002387F82B30002387F82C30FB7987F85E
:10D8DC002030002387F82130102387F822300023D2
:10D8EC0087F82330002387F8243007F1280200231F
:10D8FC00009361486021052300F09EFE0523FB6127
:10D90C00FB691846013800BF00BF00BF00BF00BF55
:10D91C0000BF00BF00BF00BF00BF00BF00BF00BF03
:10D92C0000BF00BF00BF00BF00BF00BF00BF00BFF3
:10D93C0000BF00BF00BF00BF00BF00BF00BF00BFE3
:10D94C0000BF00BF00BF00BF00BF00BF00BF00BFD3
:10D95C0000BF00BF00BF00BF00BF00BF00BF00BFC3
:10D96C0000BF00BF00BF00BF00BF00BF00BF00BFB3
:10D97C0000BF00BF00BF00BF00BFC3D107F1200232
:10D98C00002300933C486021052300F055FE65E020
:10D99C00FB793B7500237B750023BB750023FB755E
:10D9AC0000233B76BB793B7300237B731023BB7343
:10D9BC000023FB7300233B7407F114020023009334
:10D9CC002D486021052300F037FE0523BB60BB68A2
:10D9DC001846013800BF00BF00BF00BF00BF00BF2A
:10D9EC0000BF00BF00BF00BF00BF00BF00BF00BF33
:10D9FC0000BF00BF00BF00BF00BF00BF00BF00BF23
:10DA0C0000BF00BF00BF00BF00BF00BF00BF00BF12
:10DA1C0000BF00BF00BF00BF00BF00BF00BF00BF02
:10DA2C0000BF00BF00BF00BF00BF00BF00BF00BFF2
:10DA3C0000BF00BF00BF00BF00BF00BF00BF00BFE2
:10DA4C0000BF00BF00BF00BFC3D107F10C02002311
:10DA5C00009309486021052300F0EEFD7A79054911
:10DA6C0013465B0013445B000B443A795A7134370C
:10DA7C00BD4690BD202000204844020080B483B0F5
:10DA8C0000AF78600B46FB701346BB70FB787A686E
:10DA9C0013441A78BB780549CB5C1340DBB21846AB
:10DAAC000C37BD465DF8047B704700BF3820002062
:10DABC0080B483B000AF78600B46FB70FB787A685B
:10DACC0013441B7818460C37BD465DF8047B704731
:10DADC0080B483B000AF78600B46FB70FB787A683B
:10DAEC00134401221A600C37BD465DF8047B704765
:10DAFC0080B483B000AF78600B467B807B887A68FB
:10DB0C00134400221A600C37BD465DF8047B704745
:10DB1C0080B483B000AF78600B467B807B887A68DA
:10DB2C0013441B68002B14BF01230023DBB21846DF
:10DB3C000C37BD465DF8047B704700BF80B483B0E2
:10DB4C0000AF786039607B683A68C3F804230C37FF
:10DB5C00BD465DF8047B704780B483B000AF78603D
:10DB6C0039607B683A68C3F808230C37BD465DF80A
:10DB7C00047B704780B483B000AF78607B6805226B
:10DB8C00C3F800250C37BD465DF8047B704700BF19
:10DB9C0080B485B000AFF860B9607A60FB68BA6891
:10DBAC00C3F80825FB687A68C3F80C251437BD4602
:10DBBC005DF8047B704700BF80B483B000AF786021
:10DBCC0039607B683A68C3F824250C37BD465DF88C
:10DBDC00047B704780B485B000AF78607B68D3F865
:10DBEC00C434FB607B68FA68C3F8C424FB6818462D
:10DBFC001437BD465DF8047B704700BF80B483B01A
:10DC0C0000AF78600B46FB70FA787B68C3F8882508
:10DC1C000C37BD465DF8047B704700BF80B483B001
:10DC2C0000AF78607B68D3F81835DBB218460C3738
:10DC3C00BD465DF8047B704780B483B000AF78605C
:10DC4C000B46FB70FA787B68C3F81C250C37BD4675
:10DC5C005DF8047B704700BF80B483B000AF786080
:10DC6C0039607B683A68C3F800220C37BD465DF812
:10DC7C00047B704780B485B000AF78607B681B0B69
:10DC8C00FB73FB7B5BB218461437BD465DF8047B17
:10DC9C00704700BF80B483B000AF78604FF0A042F3
:10DCAC007B68012101FA03F3C2F808350C37BD4635
:10DCBC005DF8047B704700BF80B483B000AF786020
:10DCCC004FF0A0427B68012101FA03F3C2F80C3536
:10DCDC000C37BD465DF8047B704700BF80B483B041
:10DCEC0000AF78604FF0A043D3F810257B6822FA80
:10DCFC0003F303F0010318460C37BD465DF8047BB3
:10DD0C00704700BF80B588B000AF786039604FF0C5
:10DD1C00A0423B681B6803F5E07340F20C6142F8CB
:10DD2C0023104FF0A0423B685B6803F5E07340F2B0
:10DD3C000C6142F823103B681B681846FFF7AAFFDA
:10DD4C003B685B681846FFF7A5FF4FF0A0423B68A5
:10DD5C001B6803F5E07340F20D6142F823104FF09D
:10DD6C00A0423B685B6803F5E07340F20D6142F83A
:10DD7C00231004237B617B691846013800BF00BF68
:10DD8C0000BF00BF00BF00BF00BF00BF00BF00BF8F
:10DD9C0000BF00BF00BF00BF00BF00BF00BF00BF7F
:10DDAC0000BF00BF00BF00BF00BF00BF00BF00BF6F
:10DDBC0000BF00BF00BF00BF00BF00BF00BF00BF5F
:10DDCC0000BF00BF00BF00BF00BF00BF00BF00BF4F
:10DDDC0000BF00BF00BF00BF00BF00BF00BF00BF3F
:10DDEC0000BF00BF00BF00BF00BF00BF00BF00BF2F
:10DDFC00C3D10023FB6199E03B685B681846FFF7D1
:10DE0C006DFF0346002B04D0FB69002B00D1DBE037
:10DE1C0090E03B681B681846FFF74EFF0423FB603D
:10DE2C00FB681846013800BF00BF00BF00BF00BF31
:10DE3C0000BF00BF00BF00BF00BF00BF00BF00BFDE
:10DE4C0000BF00BF00BF00BF00BF00BF00BF00BFCE
:10DE5C0000BF00BF00BF00BF00BF00BF00BF00BFBE
:10DE6C0000BF00BF00BF00BF00BF00BF00BF00BFAE
:10DE7C0000BF00BF00BF00BF00BF00BF00BF00BF9E
:10DE8C0000BF00BF00BF00BF00BF00BF00BF00BF8E
:10DE9C0000BF00BF00BF00BF00BFC3D13B681B6801
:10DEAC001846FFF7F7FE04233B613B69184601381F
:10DEBC0000BF00BF00BF00BF00BF00BF00BF00BF5E
:10DECC0000BF00BF00BF00BF00BF00BF00BF00BF4E
:10DEDC0000BF00BF00BF00BF00BF00BF00BF00BF3E
:10DEEC0000BF00BF00BF00BF00BF00BF00BF00BF2E
:10DEFC0000BF00BF00BF00BF00BF00BF00BF00BF1E
:10DF0C0000BF00BF00BF00BF00BF00BF00BF00BF0D
:10DF1C0000BF00BF00BF00BF00BF00BF00BF00BFFD
:10DF2C0000BF00BFC3D1FB690133FB61FB69082B48
:10DF3C007FF762AF3B685B681846FFF7BDFE0423B2
:10DF4C00BB61BB691846013800BF00BF00BF00BFF2
:10DF5C0000BF00BF00BF00BF00BF00BF00BF00BFBD
:10DF6C0000BF00BF00BF00BF00BF00BF00BF00BFAD
:10DF7C0000BF00BF00BF00BF00BF00BF00BF00BF9D
:10DF8C0000BF00BF00BF00BF00BF00BF00BF00BF8D
:10DF9C0000BF00BF00BF00BF00BF00BF00BF00BF7D
:10DFAC0000BF00BF00BF00BF00BF00BF00BF00BF6D
:10DFBC0000BF00BF00BF00BF00BF00BFC3D13B68A4
:10DFCC005B681846FFF766FE2037BD4680BD00BF74
:10DFDC0080B586B000AFF860B9607A603B60FB68D2
:10DFEC001B791A4613469B001344DB00334A134437
:10DFFC007B617B6993F82230002B01D0082359E018
:10E00C00BB68002B05D1FB681B791B012C4A134400
:10E01C00BB607B697A681A607B693A685A607B6975
:10E02C0000229A607B69002283F825207B690022FC
:10E03C0083F82420F868B968FFF764FE4FF0A0421B
:10E04C00BB681B6803F5E07340F20C6142F82310C7
:10E05C004FF0A042BB685B6803F5E07340F20C61C3
:10E06C0042F82310FB681B683B61BB681A68BB68ED
:10E07C005B68386911461A46FFF78AFDBB689B68D6
:10E08C0038691946FFF798FD7B691B68002B0CD08B
:10E09C00FB681B681846FFF7EDFD03461A46BB6884
:10E0AC001B7B1046194602F091FE7B69012283F816
:10E0BC002220002318461837BD4680BD9022002030
:10E0CC007844020080B584B000AF78607B681B791F
:10E0DC001A4613469B001344DB00084A1344FB60AA
:10E0EC007B681B68BB60B868FFF744FDFB680222C5
:10E0FC0083F822201037BD4680BD00BF902200203F
:10E10C0080B584B000AFF860B9603B601346FB711A
:10E11C003B681B78FA799A4210D93B681B781A46EF
:10E12C00BB6813441B78F8681946FFF785FD3B68FC
:10E13C001B780133DAB23B681A700CE03B7E002B83
:10E14C0005D0F8681C21FFF7C3FC002304E0F86835
:10E15C001421FFF7BDFC012318461037BD4680BDC6
:10E16C0090B585B000AFF860B9603B601346FB71A9
:10E17C003B681B78FA799A4225D93B681B781A467A
:10E18C00BB689C18F868FFF749FD034623703B6891
:10E19C001B780133DAB23B681A703B681B781A465D
:10E1AC00FB79013B9A4204D1F8680221FFF754FD38
:10E1BC0005E03B681B78FA799A4200D103E0F868D5
:10E1CC002021FFF785FC1437BD4690BD80B588B083
:10E1DC0002AFF860B9607A603B60BB681B78002BBB
:10E1EC0005D17B681B7897F820209A4202D1012335
:10E1FC00FB7501E00023FB75BB681B78002B0FD06F
:10E20C00F8684FF49271FFF773FCF8684FF48E7155
:10E21C00FFF76EFCF8684FF48471FFF769FC72E04D
:10E22C00F8684FF49271FFF773FC0346002B0CD087
:10E23C00F8684FF49271FFF75BFCF8681421FFF754
:10E24C0047FCBB6801221A705DE0F8684FF48E71D0
:10E25C00FFF75EFC0346002B2BD0F8684FF48E7151
:10E26C00FFF746FCF8684FF49271FFF751FC034638
:10E27C00002B0CD0F8684FF49271FFF739FCF8685A
:10E28C001421FFF725FCBB6801221A703BE097F8BC
:10E29C00202097F824300093F86839687B68FFF7E2
:10E2AC002FFF034683F00103DBB2002B2BD000239E
:10E2BC003CE0F8684FF48471FFF72AFC0346002B0E
:10E2CC0021D0F8684FF48471FFF712FCF8684FF412
:10E2DC009271FFF71DFC0346002B0CD0F8684FF42D
:10E2EC009271FFF705FCF8681421FFF7F1FBBB688E
:10E2FC0001221A7007E097F82030F86839681A463E
:10E30C007B68FFF72DFFFB7D002B0ED0F8684FF4D8
:10E31C008271FFF7FDFB0346002B06D0F8684FF423
:10E32C008271FFF7E5FB002300E001231846183744
:10E33C00BD4680BD90B589B002AFF860B9607A6017
:10E34C00FB7000237B61B8684FF48271FFF7D0FB40
:10E35C00B8684FF49271FFF7CBFBB8684FF48E712D
:10E36C00FFF7C6FBB8684FF48471FFF7C1FBB868C0
:10E37C000021FFF771FCFB68002283F82620FB6864
:10E38C00002283F82320B8682021FFF7A1FBB8688E
:10E39C000821FFF79DFBFB6803F12604FA7897F838
:10E3AC0028300093B86879682346FFF7A9FEFB680C
:10E3BC001B68002B0AD0FB6840F286229A60FB682F
:10E3CC009B68B8681946FFF7B9FB19E000BFFB68FA
:10E3DC0003F12301FB6803F12602FB78009397F805
:10E3EC0028300193B8687B68FFF7F0FE0346002BDA
:10E3FC00EDD1FB6893F82330002B01D003237B6114
:10E40C007B6918461C37BD4690BD00BF80B588B0EF
:10E41C0002AFF860B9607A60FB7000237B61B8686A
:10E42C004FF48271FFF764FBB8684FF49271FFF7F9
:10E43C005FFBB8684FF48E71FFF75AFBB8684FF466
:10E44C008471FFF755FBFB68002283F82620FB68DC
:10E45C00002283F82320FB78012B04D1B868022119
:10E46C00FFF7FAFB03E0B8680121FFF7F5FBB8688A
:10E47C002021FFF72DFBB8680021FFF729FBFB6873
:10E48C001B68002B0AD0FB6840F286229A60FB685E
:10E49C009B68B8681946FFF751FB18E000BFFB6892
:10E4AC0003F12301FB6803F12602FB7800930023A0
:10E4BC000193B8687B68FFF789FE0346002BEED109
:10E4CC00FB6893F82330002B01D003237B617B691D
:10E4DC0018461837BD4680BD90B589B002AFF860BC
:10E4EC00B9607A603B6000237B61B8684FF0FF3104
:10E4FC00FFF732FBFB6893F82430DBB2002B07D01C
:10E50C00FB689B68B8681946FFF718FB112364E099
:10E51C003B6803F00403002B0CBF01230023DAB289
:10E52C00FB6883F824203B6803F00803002B01D020
:10E53C00062352E0FB683A689A61FB687A680C33F0
:10E54C0007CA83E807007B689A78FB6883F8202069
:10E55C007B685A68FB68DA617B685B78B868194637
:10E56C00FFF74CFB7B681B78012B20D07B681B785A
:10E57C00002B04D13B6803F02003002B01D00123B6
:10E58C0000E0002303F00103DAB2FB6883F82120DA
:10E59C007B685A687B689C78FB6893F82130009301
:10E5AC00F868B9682346FFF7C5FE78610CE0FB6894
:10E5BC00002283F821207B685A687B689B78F86876
:10E5CC00B968FFF723FF7861FB681B68002B03D148
:10E5DC00FB68002283F824207B6918461C37BD4653
:10E5EC0090BD00BF80B586B000AFF860B9607A60AE
:10E5FC0000237B61FB681B791A4613469B0013446E
:10E60C00DB000C4A13443B617B6803F00303002BD3
:10E61C0001D0062309E0FB681B6838691946BA6803
:10E62C007B68FFF759FF78617B6918461837BD4640
:10E63C0080BD00BF9022002080B588B000AFF8608C
:10E64C007A601A460B46FB721346BB7207F1140331
:10E65C0000221A60043300221A60043300221A606C
:10E66C000433FB7A7B75BB7ABB757B68BB6197F80F
:10E67C002830002B01D0202300E0002307F11402E6
:10E68C00F86811461A46FFF7ADFF034618462037C7
:10E69C00BD4680BD80B588B000AFF8607A601A4680
:10E6AC000B46FB721346BB7207F1140300221A606F
:10E6BC00043300221A60043300221A60043301234D
:10E6CC003B75FB7A7B75BB7ABB757B68BB6107F1CD
:10E6DC001403F86819460022FFF784FF0346184616
:10E6EC002037BD4680BD00BFB0B58AB002AF7860A0
:10E6FC0039603B6803F123013B6803F126053B6855
:10E70C00DC693B6893F820203B6893F82130009239
:10E71C00019378682A462346FFF758FD0346002BE1
:10E72C0000D07DE03B6893F8233083F00103DBB22B
:10E73C00002B3FD03B681B7B022B03D03B681B7B21
:10E74C00032B37D13B68DA693B681B699A4231D19C
:10E75C003B685A693B68DA613B68DA7B3B6883F853
:10E76C0020203B689B6903F02003002B14BF01237E
:10E77C000023DAB23B6883F821203B681B7B032B18
:10E78C000ED13B68DA693B6893F820403B6893F8FC
:10E79C0021300093386879682346FFF7CBFD3FE0C2
:10E7AC003B68DA693B6893F8203038687968FFF782
:10E7BC002DFE35E03A6807F110030C3207CA83E8E6
:10E7CC0007003B6893F82330002B14D07868FFF7D0
:10E7DC0001FAF861FB6903F00203002B02D001235C
:10E7EC003B7307E0FB6903F00403002B02D0022308
:10E7FC003B7302E001E000233B733B68002283F88B
:10E80C0024203B689B6903F00403002B08D13B6870
:10E81C001B683A68526807F10C0108461146984784
:10E82C002037BD46B0BD00BF80B500AF02480349DC
:10E83C00FFF75AFF80BD00BF00300040902200203F
:10E84C0080B500AF4FF040200149FFF74DFF80BD70
:10E85C00B8220020A0DF7047184600BFA2DF704727
:10E86C00184600BFA6DF7047184600BF63DF70472D
:10E87C00184600BF80B483B000AF786039603B6845
:10E88C009A887B689A820C37BD465DF8047B70478A
:10E89C0080B483B000AF786039607B684FF6FF724C
:10E8AC009A820C37BD465DF8047B704780B584B006
:10E8BC0000AF786039603B680633FB60FB681A88F0
:10E8CC007B685B889A420ED1FB685B89002B0AD06F
:10E8DC007B689B69002B06D07B689B69FA680C32BD
:10E8EC007868114698471037BD4680BD80B582B018
:10E8FC0000AF786039603B681B88112B09D0502B16
:10E90C000CD0102B00D00EE078683968FFF7B2FFFE
:10E91C0009E078683968FFF7BBFF04E0786839686C
:10E92C00FFF7C4FF00BF0837BD4680BD80B590B06F
:10E93C0000AF7860396007F12403184600211C22CF
:10E94C0005F05AFC97F8243043F0020387F8243082
:10E95C0097F8243043F0080387F824300023BB6277
:10E96C0000233B6300237B630023BB630023FB6317
:10E97C007B689B7CBB7341F22553BB8107F1080379
:10E98C0018460021032205F037FC3B7A012262F382
:10E99C0003033B723B7A012262F307133B727B7ACF
:10E9AC00012262F303037B727B7A012262F3071369
:10E9BC007B72BB7A012262F34203BB72BB7A6FF3A8
:10E9CC00C303BB72BB7A6FF30413BB72BB7A6FF3D6
:10E9DC000003BB7207F1100318460021142205F046
:10E9EC000BFC07F10C033B6107F108037B6101236E
:10E9FC003B8300237B831423BB8300233B627B6814
:10EA0C0018887B68023307F1240107F11002FFF725
:10EA1C0025FF034618464037BD4680BD80B592B0F1
:10EA2C0000AF7860396007F12803184600210322F3
:10EA3C0005F0E2FB97F82830012262F3030387F814
:10EA4C00283097F82830012262F3071387F8283012
:10EA5C0097F82930012262F3030387F8293097F8DD
:10EA6C002930012262F3071387F8293097F82A30EE
:10EA7C00012262F3420387F82A3007F12C0318466F
:10EA8C0000211C2205F0B8FB97F82C3043F0020350
:10EA9C0087F82C3097F82C3043F0100387F82C3083
:10EAAC0000233B630023BB630023FB6307F12803B4
:10EABC003B6400237B647B689B7CBB7441F22453D6
:10EACC003B8207F10C0318460021032205F094FB4E
:10EADC003B7B012262F303033B733B7B012262F31A
:10EAEC0007133B737B7B6FF303037B737B7B6FF3AE
:10EAFC0007137B73BB7B012262F34203BB73BB7BAB
:10EB0C006FF3C303BB73BB7B6FF30413BB73BB7B90
:10EB1C006FF30003BB7307F1140318460021142292
:10EB2C0005F06AFB07F110037B6107F10C03BB6175
:10EB3C000123BB830023FB8314233B8400237B62D0
:10EB4C007B6818887B680A3307F12C0107F11402E3
:10EB5C00FFF784FE034618464837BD4680BD00BF0C
:10EB6C0090B589B000AF786039607B684FF6FF7262
:10EB7C009A823B681A687B689A61214B07F10804FA
:10EB8C00186859689A68DB680FC47B68123307F100
:10EB9C00080210461946FFF769FEF861FB69002B65
:10EBAC0001D0FB6928E07B689B7CBB7641F2235348
:10EBBC003B837B6807F11802012011461A46FFF7C8
:10EBCC0049FEF861FB69002B01D0FB6914E0786801
:10EBDC003968FFF723FFF861FB69002B01D0FB6953
:10EBEC000AE078683968FFF7A1FEF861FB69002B31
:10EBFC0001D0FB6900E0002318462437BD4690BDC8
:10EC0C009844020080B588B000AF78600B46FB706A
:10EC1C001346BB700123FB8107F11003184600213A
:10EC2C00102205F0E9FA0123BB747B685B893B82F7
:10EC3C00FB1CFB6107F10E03BB61BB789BB2BB8273
:10EC4C007B689A8A07F1100310461946FFF70AFEF3
:10EC5C00034618462037BD4680BD00BF80B483B044
:10EC6C0000AF0346FB71FB79FA2B07D12C4B1B78B9
:10EC7C00002B03D02B4B00221A7010E0FB79FA2BDF
:10EC8C000AD1274B1B7883F00103DBB2002B03D096
:10EC9C00244B01221A7002E0224AFB791370214B9B
:10ECAC001B78012B16D0012B02DC002B05D032E097
:10ECBC00022B1CD0642B24D02DE01B4B00221A708D
:10ECCC001A4B64221A701A4B00221A70144B012230
:10ECDC001A7020E0144B64221A70144B00221A7024
:10ECEC00134B00221A700E4B00221A7013E00E4BBD
:10ECFC0064221A700D4B64221A700D4B64221A7028
:10ED0C0009E0094B64221A70084B64221A70084BF4
:10ED1C0000221A7000BF0C37BD465DF8047B7047AB
:10ED2C00E4220020E3220020E0220020E122002047
:10ED3C00E222002080B400AFBD465DF8047B704732
:10ED4C0080B586B000AF78603E4A07F108031068C2
:10ED5C00186012791A7100237B6100233B612CE04F
:10ED6C003B7A1A463B6942FA03F303F00103002B8A
:10ED7C0010D07B695A1C7A61334A4FF40C7122F81B
:10ED8C0013107B695A1C7A612F4A40F29A6122F85F
:10ED9C0013100FE07B695A1C7A612B4A4FF40C71EB
:10EDAC0022F813107B695A1C7A61274A4FF40C71B4
:10EDBC0022F813103B6901333B613B69072BCFDD14
:10EDCC003B7A002021491A4605F0E0F90023FB7339
:10EDDC001FE0FB7B1C4A32F8133000201C491A46FA
:10EDEC0005F0D4F9FA7BFB7B591CF9731946164BC9
:10EDFC0033F81110144B23F81210FB7B124A32F823
:10EE0C001330002013491A4605F0C0F9FB7B01337F
:10EE1C00FB73FB7B0F2BDCD90B48796900F012FAE2
:10EE2C000A2001F025FF0220FFF718FF322001F025
:10EE3C001FFF322001F01CFFFA20FFF70FFF1837DD
:10EE4C00BD4680BD44450200E8220020A8440200D3
:10EE5C00384502003C45020080B483B000AF034645
:10EE6C00FB71084997F907305B09FA7902F01F0228
:10EE7C00012000FA02F241F823200C37BD465DF860
:10EE8C00047B704700E100E080B483B000AF034620
:10EE9C003960FB7197F90730002B0BDA0D49FB79C0
:10EEAC0003F00F03043B3A68D2B25201D2B20B44C6
:10EEBC001A7609E0084997F907303A68D2B252013C
:10EECC00D2B20B4483F800230C37BD465DF8047BAB
:10EEDC00704700BF00ED00E000E100E080B483B0BB
:10EEEC0000AF0346FB7197F90730002B0ADA0D4A85
:10EEFC00FB7903F00F03043B13441B7EDBB25B096D
:10EF0C00DBB208E0084A97F90730134493F8003352
:10EF1C00DBB25B09DBB218460C37BD465DF8047BEF
:10EF2C00704700BF00ED00E000E100E021DF70471A
:10EF3C00184600BF23DF7047184600BF24DF704718
:10EF4C00184600BF25DF7047184600BF26DF704704
:10EF5C00184600BF80B483B000AF0346FB7197F92D
:10EF6C0007301F2B0CDC97F90730114A22FA03F3F8
:10EF7C0003F00103002B14BF01230023DBB210E0CC
:10EF8C0097F907303F2B0BDC97F90730203B012218
:10EF9C0002FA03F3002B14BF01230023DBB200E0C1
:10EFAC00012318460C37BD465DF8047B704700BF43
:10EFBC00FC06FFBC80B483B000AF78607B68072B85
:10EFCC0001D900230EE07B68002B08D07B68012B55
:10EFDC0005D07B68042B02D07B68052B01D1002364
:10EFEC0000E0012318460C37BD465DF8047B7047E2
:10EFFC0080B582B000AF0346FB7197F90730184615
:10F00C00FFF7A8FF0346002B02D142F201032CE0CC
:10F01C0097F907301846FFF761FF03461846FFF7CC
:10F02C00C9FF0346002B02D142F202031DE0114B33
:10F03C009B68002B13D097F907305B0997F90720D1
:10F04C0052090C4951F82220F97901F01F010120D5
:10F05C0000FA01F10A43074941F8232004E097F92B
:10F06C0007301846FFF7F8FE002318460837BD4650
:10F07C0080BD00BFD828002080B582B000AF034609
:10F08C003960FB7197F907301846FFF763FF0346A9
:10F09C00002B02D142F201030FE03868FFF78AFF20
:10F0AC000346002B02D142F2020306E097F9073027
:10F0BC0018463968FFF7E8FE002318460837BD46A6
:10F0CC0080BD00BF80B483B000AF78607B6803F173
:10F0DC001102064BA3FB0213D21A520813445B090C
:10F0EC0018460C37BD465DF8047B7047D5411DD4DE
:10F0FC0080B584B000AF78600023FB60464A7B6823
:10F10C001B0243F00313C2F81035444B0022C3F822
:10F11C000425424B0022C3F80825404B0422C3F8B7
:10F12C0010253E4B1A22C3F840253C4B2322C3F832
:10F13C0044253A4B0222C3F80022394B0122C3F872
:10F14C000425374B0022C3F80825354B4FF44032C9
:10F15C00C3F80423324B0022C3F84021304B002269
:10F16C00C3F844210A200321FFF786FF0246FB68FF
:10F17C001343FB600A20FFF73BFF0246FB68134377
:10F18C00FB6000202749284AFFF7D4FE0246FB68A3
:10F19C001343FB60012025491F4AFFF7CBFE0246B3
:10F1AC00FB681343FB6002201E491B4AFFF7C2FE9B
:10F1BC000246FB681343FB6000200621FFF7C6FEE6
:10F1CC000246FB681343FB600020FFF7BBFE0246C0
:10F1DC00FB681343FB6003201549164AFFF7AAFE90
:10F1EC000246FB681343FB6004201349134AFFF7E4
:10F1FC00A1FE0246FB681343FB601F20FFF796FE3F
:10F20C000246FB681343FB600D4B00221A70FB682F
:10F21C0018461037BD4680BD00600040009000408D
:10F22C0000A000404491004008A0004040910040E4
:10F23C0040A1004004F0014044A1004000F0014016
:10F24C001823002090B583B000AF78603960244B50
:10F25C001B78002BFBD1224B01221A70214A7B68B0
:10F26C001360204B1B689A1C1E490A601B881A46A7
:10F27C001D4B1A601D4C1C4B1B681846FFF722FFD8
:10F28C000346C4F84035174B1B689A1C15490A6095
:10F29C001B881A46144B1B681344134A1360134CF7
:10F2AC00114B1B681846FFF70DFF0346C4F8443595
:10F2BC000F4A3B6813600F4B00221A600020FFF7C7
:10F2CC003DFE0A4B0122DA60084B01221A600A4B00
:10F2DC000122DA60084B01221A600C37BD4690BD42
:10F2EC0018230020082300201023002000A0004039
:10F2FC000C2300201423002000900040B0B500AF78
:10F30C0039E0214A214B1B685033002142F823106D
:10F31C001F4B1B68013B1E4A13601D4B1B68012BC6
:10F32C0019D91C4B1B689A1C1A490A601B881A466F
:10F33C00194B1B681344184A1360134D134B1C686C
:10F34C00154B1B681846FFF7BDFE024604F5A87363
:10F35C0045F8232009E00E4B1B68002B05D10F4B01
:10F36C0001225A600E4B00221A70084B1B68C3F125
:10F37C000103064A1360044A044B1B68503352F8CD
:10F38C002330002BBDD1B0BD00A0004014230020C1
:10F39C000C230020082300201023002000900040A4
:10F3AC001823002080B588B000AF0346FB71002302
:10F3BC00FB610023BB61FB79172B00F22D8301A2AB
:10F3CC0052F823F031F4010055F4010055F401001A
:10F3DC00FDF40100A5F5010037F60100DDF6010092
:10F3EC0069F70100A3F70100DFF7010021F8010024
:10F3FC005DF801009FF80100BDF80100BDF80100A7
:10F40C00BDF80100BDF80100BDF801004DF9010087
:10F41C006BF901009FF90100D3F9010007FA010013
:10F42C0007FA01004FF0A042C74B1B68DB4303F403
:10F43C00F013C2F808354FF0A0430022C3F80C2596
:10F44C00C24AFB791370E8E24FF0A042BE4B1B6836
:10F45C00DB4303F4E013C2F808354FF0A04300225D
:10F46C00C3F80C254FF0A043D3F8043583F4F01304
:10F47C0003F40033002B14D04FF0A0434FF40032B0
:10F48C00C3F808254FF0A0430022C3F80C25FB79E4
:10F49C00022B02D14FF4E16301E04FF47A63BB61BC
:10F4AC0012E04FF0A0434FF40032C3F80C254FF09C
:10F4BC00A0430022C3F80825FB79022B01D1C823F5
:10F4CC0001E04FF4C873BB61A04AFB791370A049EB
:10F4DC00BB69A04AA2FB03235B099F4A126802FB8B
:10F4EC0003F308461946002203F0A2FDF86194E2EA
:10F4FC004FF0A042944B1B68DB4303F4E013C2F8BB
:10F50C0008354FF0A0430022C3F80C254FF0A04360
:10F51C00D3F8043583F4F01303F40033002B14D028
:10F52C004FF0A0434FF40032C3F808254FF0A0432E
:10F53C000022C3F80C25FB79032B02D14FF448733E
:10F54C0001E04FF47A63BB6112E04FF0A0434FF43B
:10F55C000032C3F80C254FF0A0430022C3F8082555
:10F56C00FB79032B01D1C82301E04FF4C873BB61B5
:10F57C00764AFB7913707649BB69764AA2FB032362
:10F58C005B09754A126802FB03F308461946002210
:10F59C0003F04EFDF86140E24FF0A0426A4B1B684D
:10F5AC00DB4303F4E013C2F808354FF0A04300220C
:10F5BC00C3F80C254FF0A043D3F8043583F4F013B3
:10F5CC0003F40033002B0ED04FF0A0434FF4003265
:10F5DC00C3F808254FF0A0430022C3F80C254FF4C4
:10F5EC007A63BB610DE04FF0A0434FF40032C3F8D7
:10F5FC000C254FF0A0430022C3F808254FF4C87324
:10F60C00BB61524AFB7913705149BB69514AA2FB49
:10F61C0003235B09504A126802FB03F308461946A0
:10F62C00002203F005FDF861F7E14FF0A042464BD4
:10F63C001B68DB4303F4E013C2F808354FF0A0431A
:10F64C000022C3F80C254FF0A043D3F8043583F403
:10F65C00F01303F40033002B13D04FF0A0434FF4FE
:10F66C000032C3F808254FF0A0430022C3F80C2544
:10F67C00FB79052B01D1C82301E04FF47A63BB6100
:10F68C0012E04FF0A0434FF40032C3F80C254FF0BA
:10F69C00A0430022C3F80825FB79052B01D1C82310
:10F6AC0001E04FF4C873BB61284AFB7913702849F9
:10F6BC00BB69284AA2FB03235B09274A126802FB99
:10F6CC0003F308461946002203F0B2FCF861A4E1EA
:10F6DC004FF0A0421C4B1B68DB4303F4E013C2F851
:10F6EC0008354FF0A0430022C3F80C254FF0A0437F
:10F6FC00D3F8043583F4F01303F40033002B0BD050
:10F70C004FF0A0434FF40032C3F808254FF0A0434C
:10F71C000022C3F80C250AE04FF0A0434FF400324E
:10F72C00C3F80C254FF0A0430022C3F80825074A64
:10F73C00FB791370064A084B1B68104619460022C9
:10F74C0003F076FCF86168E12423002019230020E3
:10F75C00282300201F85EB511C2300204FF0A042D2
:10F76C00B04B1B68DB4303F4E013C2F808354FF0D1
:10F77C00A0430022C3F80C254FF0A0434FF40032F5
:10F78C00C3F80C254FF0A0430022C3F80825A64A65
:10F79C00FB79137041E14FF0A043D3F804357B6142
:10F7AC004FF0A0427B69DB4303F48023C2F8083599
:10F7BC004FF0A0427B6903F48023C2F80C359B4ABE
:10F7CC009B4B1B6810461946002203F031FCF86174
:10F7DC0023E14FF0A043D3F804353B614FF0A04236
:10F7EC003B69DB4303F48023C2F808354FF0A04299
:10F7FC003B6903F48023C2F80C358C498C4B1A6896
:10F80C0013469B00134408461946002203F010FCD3
:10F81C00F86102E14FF0A043D3F80435FB604FF0E0
:10F82C00A042FB68DB4303F48023C2F808354FF099
:10F83C00A042FB6803F48023C2F80C357B4A7C4B56
:10F84C001B6810461946002203F0F2FBF861E4E055
:10F85C004FF0A043D3F80435BB604FF0A042BB6817
:10F86C00DB4303F48023C2F808354FF0A042BB6899
:10F87C0003F48023C2F80C356C496D4B1A6813469F
:10F88C009B00134408461946002203F0D1FBF86193
:10F89C00C3E04FF0A0434FF4F012C3F80C254FF027
:10F8AC00A0430022C3F808255F4AFB791370B4E02B
:10F8BC00604B184603F0F4FBF861FB79C3F11103BC
:10F8CC00BB61BB69002B2AD0FB69002B27D1554BA0
:10F8DC004FF400221A60BB69012B12D95549BB6940
:10F8EC00C82202FB03F3544AA2FB03235B09504AD0
:10F8FC00126802FB03F308461946002203F098FB3A
:10F90C00F8614FF0A042474B1B6803F4F013C2F8A8
:10F91C000C354FF0A0430022C3F808257DE04FF0D2
:10F92C00A042404B1B6803F4F013C2F808354FF0AB
:10F93C00A0430022C3F80C253A4B00221A606CE05D
:10F94C004FF0A0434FF4F012C3F808254FF0A0433A
:10F95C000022C3F80C25344AFB7913705DE04FF09C
:10F96C00A0434FF4E012C3F808254FF0A043002247
:10F97C00C3F80C254FF0A0434FF40032C3F80C250C
:10F98C004FF0A0430022C3F80825274AFB791370D7
:10F99C0043E04FF0A0434FF4D012C3F808254FF0CA
:10F9AC00A0430022C3F80C254FF0A0434FF4802253
:10F9BC00C3F80C254FF0A0430022C3F808251A4ABF
:10F9CC00FB79137029E04FF0A0434FF4C012C3F839
:10F9DC0008254FF0A0430022C3F80C254FF0A0439C
:10F9EC004FF4C022C3F80C254FF0A0430022C3F8FB
:10F9FC0008250D4AFB7913700FE04FF0A0434FF42C
:10FA0C00F012C3F80C254FF0A0430022C3F80825D0
:10FA1C00054AFB79137000E000BFFB6918462037DC
:10FA2C00BD4680BD2423002019230020282300205C
:10FA3C001C230020482300201F85EB5180B584B087
:10FA4C0000AF0346FB710023FB60084B1B6803F0FF
:10FA5C000103002B04D0FB791846FFF7A3FCF860D8
:10FA6C00FB6818461037BD4680BD00BF2023002020
:10FA7C0071DF7047184600BF72DF7047184600BF31
:10FA8C0079DF7047184600BF7DDF7047184600BF0E
:10FA9C0065DF7047184600BF80B483B000AF0346E3
:10FAAC003960FB80FB88DAB23B681A703B68013323
:10FABC00FA88120A92B2D2B21A70022318460C3784
:10FACC00BD465DF8047B704780B487B000AFF8602A
:10FADC00B9607A607B807B681B8803F112027B889B
:10FAEC009A4201D90C2336E07B681B881A46BB6806
:10FAFC00134411221A707B681B8801339AB27B68FD
:10FB0C001A807B681B881A46BB68134410221A7033
:10FB1C007B681B8801339AB27B681A800F23FB75B4
:10FB2C0014E07B681B881A46BB68134497F91720AE
:10FB3C00F9688A5C1A70FB7DDBB2013BDBB2FB75AA
:10FB4C007B681B8801339AB27B681A8097F917304F
:10FB5C00002BE6DA002318461C37BD465DF8047B03
:10FB6C00704700BF80B485B000AFB9607A601A46A8
:10FB7C000346FB731346BB817B681B88DA1CBB896D
:10FB8C009A4201D90C2352E07B681B881A46BB6849
:10FB9C00134402221A707B681B8801339AB27B686B
:10FBAC001A807B681B881A46BB6813441C221A7087
:10FBBC007B681B8801339AB27B681A80FB7B013B04
:10FBCC00032B2BD801A252F823F000BFE9FB010054
:10FBDC00F9FB010009FC010019FC01007B681B8882
:10FBEC001A46BB68134400221A7019E07B681B8804
:10FBFC001A46BB68134401221A7011E07B681B88FB
:10FC0C001A46BB68134402221A7009E07B681B88F1
:10FC1C001A46BB68134403221A7001E0072306E05E
:10FC2C007B681B8801339AB27B681A8000231846C4
:10FC3C001437BD465DF8047B704700BF80B588B0B3
:10FC4C0000AFF860B9601346FB80BB681B8803F1FA
:10FC5C000902FB889A4201D90C2350E007F11403E6
:10FC6C001846FFF705FFF861FB69002B01D0FB6913
:10FC7C0045E0BB681B881A46FB68134408221A70BF
:10FC8C00BB681B8801339AB2BB681A80BB681B889F
:10FC9C001A46FB6813441B221A70BB681B8801337D
:10FCAC009AB2BB681A80BB681B881A46FB681A4458
:10FCBC0007F11403013310461946062204F07EFAAC
:10FCCC00BB681B8806339AB2BB681A803B7D002B3D
:10FCDC0007D1BB681B881A46FB68134400221A70B4
:10FCEC0006E0BB681B881A46FB68134401221A7095
:10FCFC00BB681B8801339AB2BB681A800023184674
:10FD0C002037BD4680BD00BF80B588B000AFF8601D
:10FD1C00B9607A607B80FB681B78012B05D1FB688E
:10FD2C005B78002B01D1072377E07B681B889A1C3A
:10FD3C007B889A420DD8FB681B78012B0BD17B6812
:10FD4C001B881A46FB685B7813449A1C7B889A4282
:10FD5C0001D90C2361E07B681B887A88D31A9BB28B
:10FD6C00023BBB83BB8BFB827B681B880233BA686C
:10FD7C001A4407F1160310461946FFF785FEB861C1
:10FD8C00BB69002B01D0BB6947E0FB681B78022BD9
:10FD9C0006D1FB8ABA8B9A4202D30923FB7712E075
:10FDAC000823FB77FB681B78012B0AD1FB685B7877
:10FDBC009BB2BA8B9A4204D3FB685B789BB2FB82F2
:10FDCC0001E0BB8BFB82FB8AFE2B01D90C2324E0C8
:10FDDC007B681B881A46BB681344FA8AD2B201327C
:10FDEC00D2B21A707B681B8801339AB27B681A8076
:10FDFC007B681B881A46BB681344FA7F1A707B68B1
:10FE0C001B8801339AB27B681A807B681A88FB8A3C
:10FE1C0013449AB27B681A80002318462037BD46DB
:10FE2C0080BD00BF80B586B000AFF860B9601346E6
:10FE3C00FB80BB681B881A1DFB889A4201D90C23D6
:10FE4C0038E007F112031846FFF71AFE78617B6958
:10FE5C00002B01D07B692DE0BB681B881A46FB6820
:10FE6C00134403221A70BB681B8801339AB2BB6817
:10FE7C001A80BB681B881A46FB68134419221A7037
:10FE8C00BB681B8801339AB2BB681A807A8ABB683C
:10FE9C001B881946FB680B4410461946FFF7FCFDFE
:10FEAC0003461946BB681A888BB213449AB2BB68D6
:10FEBC001A80002318461837BD4680BD80B485B023
:10FECC0000AFB9607A601A460346FB731346BB81D8
:10FEDC007B681B88DA1CBB899A4201D90C2327E06A
:10FEEC007B681B881A46BB68134402221A707B6815
:10FEFC001B8801339AB27B681A807B681B881A4670
:10FF0C00BB68134401221A707B681B8801339AB2B8
:10FF1C007B681A807B681B881A46BB681344FA7B83
:10FF2C001A707B681B8801339AB27B681A80002395
:10FF3C0018461437BD465DF8047B704780B485B015
:10FF4C0000AFB9607A601A460346FB731346BB8157
:10FF5C007B681B88DA1CBB899A4201D90C2327E0E9
:10FF6C007B681B881A46BB68134402221A707B6894
:10FF7C001B8801339AB27B681A807B681B881A46EF
:10FF8C00BB68134411221A707B681B8801339AB228
:10FF9C007B681A807B681B881A46BB681344FA7B03
:10FFAC001A707B681B8801339AB27B681A80002315
:10FFBC0018461437BD465DF8047B704780B485B095
:10FFCC0000AFB9607A601A460346FB731346BB81D7
:10FFDC007B681B88DA1CBB899A4201D90C2327E069
:10FFEC007B681B881A46BB68134402221A707B6814
:04FFFC001B8801332A
:020000022000DC
:100000009AB27B681A807B681B881A46BB681344C7
:100010000A221A707B681B8801339AB27B681A80A7
:100020007B681B881A46BB681344FA7B1A707B688E
:100030001B8801339AB27B681A8000231846143754
:10004000BD465DF8047B704780B58AB000AFF860AC
:100050007B600B46FB721346BB72002387F823308C
:100060003B6B1B883B8400237B626BE0FB685A6818
:100070007B6A9B001A4407F110031068186007F1AF
:10008000100207F11703104619460022FFF706FD7C
:10009000F861FB69002B01D0FB6970E0FB7DBA7A47
:1000A0009A424CD197F82330002B01D0002300E076
:1000B0000223FB763B6B1B881A46FB7D1A44FB7EB2
:1000C0001A44BB8E9A4201DD0C2358E097F8233086
:1000D00083F00103DBB2002B15D03B6B1B8801338F
:1000E0009AB23B6B1A803B6B1B881A467B681344A1
:1000F000FA7A1A703B6B1B8801339AB23B6B1A80F9
:10010000012387F823303B6B1B881A467B68134416
:1001100007F1100107F11702084611461A46FFF7CA
:10012000BDFCF861FB69002B01D0FB6927E03B6B4C
:100130001A88FB7D9BB213449AB23B6B1A807B6A90
:1001400001337B62FB681B881A467B6A9A428DDC0E
:1001500097F82330002B11D03B6B1A883B8CD31AB5
:100160009BB2013B3B833B8BFF2B01D90C2306E069
:100170003B8C7A6813443A8BD2B21A70002318462B
:100180002837BD4680BD00BF80B588B002AFF8609B
:100190007B600B46FB721346BB72FA7A3B6A009394
:1001A000BB8C0193F868114602227B68FFF74CFF75
:1001B00078617B69002B01D07B6911E0BA7A3B6AD8
:1001C0000093BB8C0193F868114610227B68FFF7FF
:1001D0003BFF78617B69002B01D07B6900E0002345
:1001E00018461837BD4680BD80B483B000AF786034
:1001F0007B681B88052B0AD97B681B88B3F5486F81
:1002000007D97B681B884FF6FF72934201D0072302
:1002100025E07B685B88052B0AD97B685B88B3F592
:10022000486F07D97B685B884FF6FF72934201D015
:10023000072314E07B681B884FF6FF7293420DD0B2
:100240007B685B884FF6FF72934207D07B681A8801
:100250007B685B889A4201D9072300E00023184697
:100260000C37BD465DF8047B704700BF80B586B093
:1002700000AFF860B9607A607B807B681B889A1D4C
:100280007B889A4201D90C234BE0F868FFF7ACFF5A
:1002900078617B69002B01D07B6942E07B681B8819
:1002A0001A46BB68134405221A707B681B88013309
:1002B0009AB27B681A807B681B881A46BB68134415
:1002C00012221A707B681B8801339AB27B681A80ED
:1002D000FB681A887B681B881946BB680B4410466C
:1002E0001946FFF7DFFB034619467B681A888BB275
:1002F00013449AB27B681A80FB685A887B681B8813
:100300001946BB680B4410461946FFF7CBFB034662
:1003100019467B681A888BB213449AB27B681A809C
:10032000002318461837BD4680BD00BF80B586B093
:1003300000AFF860B9607A607B80FB689B8802330D
:100340007B617B681B881A467B6913449A1C7B88F7
:100350009A4201D90C2356E07B69FE2B01D90C236C
:1003600051E07B681B881A46BB6813447A69D2B295
:100370000132D2B21A707B681B8801339AB27B6853
:100380001A807B681B881A46BB681344FF221A70C8
:100390007B681B8801339AB27B681A80FB681A88D5
:1003A0007B681B881946BB680B4410461946FFF74B
:1003B00079FB034619467B681A888BB213449AB2BC
:1003C0007B681A80FB689B88002B1BD0FB689B68AE
:1003D000002B01D1072316E07B681B881A46BB68F7
:1003E0009918FB689A68FB689B88084611461A466C
:1003F00003F0EAFE7B681A88FB689B8813449AB274
:100400007B681A80002318461837BD4680BD00BFA0
:1004100080B588B000AFF860B9607A607B80FB6817
:100420009B6A002B01D107236FE00023FB7765E077
:10043000FB68996AFA7F13465B0013449B000B44E8
:10044000BB61BB699B8802337B617B69FE2B01D951
:100450000C235AE07B681B881A46BB6813447A69F0
:10046000D2B20132D2B21A707B681B8801339AB2C1
:100470007B681A807B681B881A46BB681344162267
:100480001A707B681B8801339AB27B681A80BB693B
:100490001A887B681B881946BB680B4410461946AE
:1004A000FFF700FB034619467B681A888BB213449A
:1004B0009AB27B681A80BB699B88002B1BD0BB69F2
:1004C0009B68002B01D107231FE07B681B881A461D
:1004D000BB689918BB699A68BB699B880846114636
:1004E0001A4603F071FE7B681A88BB699B88134427
:1004F0009AB27B681A80FB7F0133FB77FB6893F825
:100500002C30FA7F9A4293D3002318462037BD46F9
:1005100080BD00BF80B588B002AFF860B9607A6076
:1005200000237B617B681B887B827B6800221A80AA
:10053000FB685B6B002B0ED0FB685B6B1A787B8AC9
:100540001046B9687A68FFF7FFFC78617B69002B79
:1005500001D07B69F9E0FB681B6B002B0DD0FB68B9
:100560001A6B7B8A1046B9687A68FFF7B3FA78612C
:100570007B69002B01D07B69E7E0FB6893F82E30A4
:10058000002B0ED0FB6893F82E207B8A1046B968AA
:100590007A68FFF7EDFA78617B69002B01D07B69FF
:1005A000D3E0FB6893F82D30002B0BD07B8AB86822
:1005B00079681A46FFF748FB78617B69002B01D008
:1005C0007B69C2E0FB689B78002B0BD07B8AB86804
:1005D00079681A46FFF72CFC78617B69002B01D003
:1005E0007B69B2E0FB68DB78002B0FD0FB68DB781F
:1005F000DBB25AB27B8A1046B9687A68FFF764FCAE
:1006000078617B69002B01D07B699EE0FB685B68A9
:10061000002B0FD0FB685B681B785AB27B8A1046B0
:10062000B9687A68FFF7D0FC78617B69002B01D04C
:100630007B698AE0FB681B89002B12D0FB6803F101
:1006400008027B6800937B8A0193104602210622F0
:10065000BB68FFF799FD78617B69002B01D07B694E
:1006600073E0FB681B8A002B12D0FB6803F11002B9
:100670007B6800937B8A0193104603210722BB68A5
:10068000FFF782FD78617B69002B01D07B695CE01C
:10069000FB681B8B002B12D0FB6803F118027B68F0
:1006A00000937B8A0193104614211522BB68FFF743
:1006B0006BFD78617B69002B01D07B6945E0FB68AD
:1006C0001B6A002B0DD0FB681A6A7B8A1046B9683A
:1006D0007A68FFF7CBFD78617B69002B01D07B69DD
:1006E00033E0FB685B6A002B0DD0FB685A6A7B8A9B
:1006F0001046B9687A68FFF719FE78617B69002BAC
:1007000001D07B6921E0FB6893F82C30002B0BD0E3
:100710007B8AF868B9687A68FFF77AFE78617B6946
:10072000002B01D07B6910E0FB681B78002B0BD0FD
:100730007B8AF868B9687A68FFF7ECFA78617B69B8
:10074000002B01D07B6900E07B6918461837BD4655
:1007500080BD00BF80B483B000AF78607B68DB7879
:1007600003F00403002B01D1072300E00023184607
:100770000C37BD465DF8047B704700BF80B483B082
:1007800000AF78607B68DB78002B01D0072300E0A6
:10079000002318460C37BD465DF8047B704700BF48
:1007A00080B596B000AF786039601F23A7F84A3053
:1007B0001F23A7F848307B68002B1BD07868FFF711
:1007C000C9FFF864FB6C002B01D0FB6C47E007F11C
:1007D000280207F14A03786811461A46FFF79AFE85
:1007E000F864FB6C002B01D0FB6C38E007F12803A8
:1007F0007B6504E000237B650023A7F84A303B6853
:10080000002B1BD03868FFF7B9FFF864FB6C002B96
:1008100001D0FB6C23E007F1080207F148033868B8
:1008200011461A46FFF776FEF864FB6C002B01D0E8
:10083000FB6C14E007F108033B6504E000233B6513
:100840000023A7F84830B7F84A30DAB2B7F8483092
:10085000DBB2786D11463A6DFFF714F9034618467E
:100860005837BD4680BD00BF75DF7047184600BFD2
:1008700076DF7047184600BF7ADF7047184600BF22
:100880007BDF7047184600BF80B483B000AF78604C
:100890007B681B789AB27B6801331B781B029BB282
:1008A00013439BB29BB218460C37BD465DF8047BE0
:1008B000704700BF80B584B000AF78607868FFF7FC
:1008C000E3FF0346FB81FB8903F00103002B14BF08
:1008D00001230023DBB218461037BD4680BD00BFA0
:1008E00080B483B000AF78607B685A88094B1B885E
:1008F0009A4207D37B685A88064B5B889A4201D894
:10090000012300E0002318460C37BD465DF8047B48
:10091000704700BF8423002080B586B000AF7860A8
:10092000264B1B884FF6FF72934244D0244B1B7812
:100930000133DAB2224B1A70224B1A7B204B1B7800
:100940009A4213D31D4B1B8818461F49FFF78CFF93
:1009500078617B69002B08D01A4B9B69002B04D06F
:10096000184B9B697869984725E024E0144B0022D6
:100970001A70144B1B7C002B11D0104B1B8818468F
:100980003B21FFF775FF38613B69002B07D00D4B0A
:100990009B69002B03D00B4B9B6938699847094B27
:1009A0005B69002B07D000233B73064B5B6907F1A3
:1009B0000C02104698471837BD4680BD8E23002094
:1009C0008C2300206823002084230020B0B584B04D
:1009D00000AF78601C4A7B6814461D460FCD0FC4DB
:1009E00095E8070084E80700184B00221A707B681E
:1009F0001B68002B0ED07B681A68154B1068516875
:100A000003C31348FFF738FFF860FB68002B0AD0D8
:100A1000FB6815E00E48FFF733FFF860FB68002B1A
:100A200001D0FB680CE00B4B4FF6FF721A800A4BAB
:100A300000221A7009480021094A02F0B1FA03465F
:100A400018461037BD46B0BD68230020B8230020EB
:100A5000842300208E2300208C2300204C4502009C
:100A60001909020080B584B000AF2448FFF738FFB1
:100A7000034683F00103DBB2002B2ED0204B1B7802
:100A8000002B0BD01F4B5B69002B25D000233B7143
:100A90001C4B5B693A1D1046984729E01A4B1B789E
:100AA000002B03D1174B5B68FB6002E0154B9B6882
:100AB000FB60164B1846F968002202F0BFFAB860D6
:100AC000BB68002B08D00F4B9B69002B04D00D4B4B
:100AD0009B69B86898470BE00AE00A4B5B69002BFA
:100AE00006D001233B70074B5B693A461046984796
:100AF000034B00221A701037BD4680BD90230020A2
:100B0000B8230020682300208C2300209823002095
:100B100080B582B000AF78607B689A880A4B1A80F3
:100B20000A4A7B68183393E8030082E80300084B05
:100B300000221A70074BDB89002B01D1FFF792FFCF
:100B40000837BD4680BD00BF8E23002090230020C3
:100B50008C2300206823002080B584B000AF78602B
:100B60000C4B4FF6FF721A800B4B00221A700B4B86
:100B7000184602F09BFAF860FB68002B07D0084B80
:100B80009B69002B03D0064B9B69F8689847103788
:100B9000BD4680BD8E2300208C230020982300209A
:100BA0006823002080B584B000AF78607B6806338E
:100BB000FB60FB681A88134BDB899A421ED1FB68E5
:100BC0005B89022B1AD1FB680C331846FFF772FEC3
:100BD0000346002B02D0FFF745FF0FE00A4B1846F3
:100BE00002F064FAB860BB68002B07D0054B9B6924
:100BF000002B03D0034B9B69B86898471037BD465C
:100C000080BD00BF682300209823002080B582B0FB
:100C100000AF7860054A7B68083393E8030082E8F8
:100C20000300FFF71FFF0837BD4680BD902300205B
:100C300080B582B000AF78607B681B88112B0DD027
:100C4000112B02DC102B05D014E0122B0ED0502BF0
:100C500008D00FE07868FFF75BFF0BE07868FFF7DC
:100C60007BFF07E07868FFF79DFF03E07868FFF7F8
:100C7000CDFF00BF0837BD4680BD00BF80B485B042
:100C800000AF786043E07B68013B7B6040F2E73374
:100C9000FB60FB681846013800BF00BF00BF00BF03
:100CA00000BF00BF00BF00BF00BF00BF00BF00BF4C
:100CB00000BF00BF00BF00BF00BF00BF00BF00BF3C
:100CC00000BF00BF00BF00BF00BF00BF00BF00BF2C
:100CD00000BF00BF00BF00BF00BF00BF00BF00BF1C
:100CE00000BF00BF00BF00BF00BF00BF00BF00BF0C
:100CF00000BF00BF00BF00BF00BF00BF00BF00BFFC
:100D000000BF00BF00BF00BF00BF00BFC3D17B68F2
:100D1000002BB8D11437BD465DF8047B704700BF87
:100D200080B483B000AF0346FB71084997F90730E0
:100D30005B09FA7902F01F02012000FA02F241F881
:100D400023200C37BD465DF8047B704700E100E0CE
:100D500080B483B000AF0346FB71094997F90730AF
:100D60005B09FA7902F01F02012000FA02F26033F7
:100D700041F823200C37BD465DF8047B704700BF67
:100D800000E100E080B483B000AF03463960FB713E
:100D900097F90730002B0BDA0D49FB7903F00F03AD
:100DA000043B3A68D2B25201D2B20B441A7609E03F
:100DB000084997F907303A68D2B25201D2B20B44CF
:100DC00083F800230C37BD465DF8047B704700BFF5
:100DD00000ED00E000E100E080B582B000AF034626
:100DE0000A46FB711346BB71BB7997F90720104681
:100DF0001946FFF7C7FF97F907301846FFF7A8FF16
:100E000097F907301846FFF78BFF0837BD4680BDBE
:100E100080B582B000AF0346FB80FB88184600F027
:100E200023F803461B68012B0CBF01230023DBB210
:100E300018460837BD4680BD80B584B000AF034674
:100E4000FB80FB88184600F00FF803461A46002383
:100E50001360FB88184600F007F803461B68FB6028
:100E6000FB681037BD4680BD80B483B000AF034639
:100E7000FB80FB8803F1804303F5C04318460C3721
:100E8000BD465DF8047B704780B483B000AF7860E6
:100E9000044A7B68C2F804330C37BD465DF8047B16
:100EA000704700BF0060004080B483B000AF78603E
:100EB000044A7B68C2F808330C37BD465DF8047BF2
:100EC000704700BF0060004080B483B000AF78601E
:100ED000054BD3F804237B68134018460C37BD46F6
:100EE0005DF8047B704700BF0060004080B483B0B1
:100EF00000AF78600949094A7B6803F5A27352F88C
:100F0000233043F001027B6803F5A27341F82320EC
:100F10000C37BD465DF8047B704700BF00600040A1
:100F200080B483B000AF78600949094A7B6803F553
:100F3000A27352F8233023F001027B6803F5A273F9
:100F400041F823200C37BD465DF8047B704700BF95
:100F50000060004080B485B000AFF860B96013460F
:100F6000FB711549144AFB6803F5A27352F823304C
:100F700023F4473323F44073FA6802F5A27241F870
:100F800022300D480C4AFB6803F5A27352F8232067
:100F9000BB681B0203F4F851FB791B0403F44033D4
:100FA0000B431A43FB6803F5A27340F82320143760
:100FB000BD465DF8047B70470060004080B483B09C
:100FC00000AF7860074A7B6803F5A27352F82330BC
:100FD00003F4F8531B0A18460C37BD465DF8047B32
:100FE000704700BF0060004080B483B000AF7860FD
:100FF000074A7B6803F5A27352F8233003F44033A9
:101000001B0CDBB218460C37BD465DF8047B7047FD
:101010000060004080B483B000AF7860084611469D
:101020001A460346FB700B46BB7013467B704FF0AD
:10103000A041FA78BB785B001A437B789B001A4387
:101040003B7C1B021A433B7D1B041A437B6803F560
:10105000E07341F823200C37BD465DF8047B7047F0
:1010600090B585B002AF78600B46FB70FC7800232A
:101070000093002301937868002100222346FFF7A4
:10108000C9FF0C37BD4690BD80B485B000AF786015
:101090004FF0A0427B6803F5E07352F8233023F051
:1010A0000203FB604FF0A0417B6803F5E073FA6830
:1010B00041F823201437BD465DF8047B704700BF1C
:1010C00080B483B000AF78600B46FB704FF0A04156
:1010D0004FF0A0427B6803F5E07352F8233023F40D
:1010E00040327B6803F5E07341F823204FF0A041C4
:1010F0004FF0A0427B6803F5E07352F82330FA7892
:1011000012041A437B6803F5E07341F823200C377F
:10111000BD465DF8047B704780B400AF4FF0A0433C
:10112000D3F810351846BD465DF8047B704700BF04
:1011300080B483B000AF78604FF0A0427B6803F5C5
:10114000E07352F8233003F440331B0CDBB2184633
:101150000C37BD465DF8047B704700BF80B483B098
:1011600000AF78600D4A7B68134430331B785BB264
:10117000002B09DB094A7B68134430331B785BB2D0
:10118000072B01DC012300E0002303F00103DBB2A5
:1011900018460C37BD465DF8047B7047BC23002021
:1011A00080B483B000AF7860084A7B681344303362
:1011B0001B785BB2072BCCBF01230023DBB21846A0
:1011C0000C37BD465DF8047B704700BFBC23002090
:1011D00080B483B000AF7860074A7B681344303333
:1011E0001B78DB43DBB2DB09DBB218460C37BD46AC
:1011F0005DF8047B704700BFBC23002080B485B03D
:1012000000AFF860B9607A60FB70BB68D9B20F4A72
:10121000FB68134430330A461A700C49BB687A687D
:1012200041F82320FB7883F00103DBB2002B08D0C8
:10123000BB68083BFA68D1B2044A13440A4683F8F3
:1012400050201437BD465DF8047B7047BC23002056
:1012500080B483B000AF7860054A7B6813443033B4
:10126000FF221A700C37BD465DF8047B704700BF43
:10127000BC23002080B483B000AF7860054A7B684F
:10128000134430331B785BB218460C37BD465DF80B
:10129000047B7047BC23002080B483B000AF78602B
:1012A000044A7B6852F8233018460C37BD465DF877
:1012B000047B7047BC23002080B588B000AFF86085
:1012C000B9601346FB71FF23FB77FB79002B01D03C
:1012D000002300E008237B61FB79002B01D0082369
:1012E00000E00C233B617B69BB6112E00E4ABB69E5
:1012F00052F82330B3F1FF3F08D1FB79F868B969A0
:10130000BA68FFF77BFFBB69FB7706E0BB69013377
:10131000BB61BA693B699A42E8D3FB7F5BB218466E
:101320002037BD4680BD00BFBC23002080B483B001
:1013300000AF0346FB71FB79094A4FF0FF3142F8D9
:101340002310FB79072B06D9FB79083B044A134489
:10135000FF2283F850200C37BD465DF8047B7047B0
:10136000BC23002080B582B000AF194B93F85430F5
:10137000002B01D0082326E00023FB7106E0FB7957
:101380001846FFF765FFFB790133FB71FB791F2BD3
:10139000F5D90023FB7106E0FB791846FFF7C6FF7D
:1013A000FB790133FB71FB790B2BF5D90620062164
:1013B000FFF712FD4FF00040FFF766FD044B0122DE
:1013C00083F85420002318460837BD4680BD00BF6F
:1013D000BC23002080B400AF064B93F85430002BA0
:1013E00014BF01230023DBB21846BD465DF8047B21
:1013F000704700BFBC23002080B586B000AFF86006
:10140000B9607A6000237B61F868FFF7E1FE03466C
:10141000002B02D008237B6141E0BB68DB78F868D1
:1014200079681A46FFF748FF0346FB7497F91330B3
:10143000B3F1FF3F31D0BB689B78002B03D0F86835
:10144000FFF722FE05E0BB685B78F8681946FFF7F6
:1014500007FEBB68DB78002B09D097F91320BB6827
:101460001B781046F9681A46FFF774FD17E097F9E4
:101470001330083B97F91320083A0B490A4492F8B5
:101480005010BA6812789201D2B20A43D1B2064A19
:1014900013440A4683F8502001E004237B617B69F2
:1014A00018461837BD4680BDBC23002080B586B0E5
:1014B00000AF78600B46FB707868FFF771FE03465B
:1014C000002B2BD07868FFF7D5FE0346083B2C4A4B
:1014D000134493F85030BB75BB7D9B097B757B7DB6
:1014E000032B0ED1FFF718FE01467B68012202FA9A
:1014F00003F30B40002B01D0032300E00223FB7514
:1015000006E07B7D012B01D1022300E00323FB7564
:10151000FB7D78681946FFF7D3FD2DE07868FFF76B
:101520001DFE0346002B27D07868FFF7A3FE034675
:101530003B613B699BB240339BB29B00FB813B69A3
:101540001846FFF7D3FCFB891846FFF775FCFB78BC
:10155000002B11D07868FFF78DFE03461846FFF781
:101560009BFEB860BB68002B06D001223B6902FAE3
:1015700003F31846FFF788FC1837BD4680BD00BF4F
:10158000BC23002080B584B000AF78607868FFF796
:1015900007FE0346002B04D078680021FFF790FD7A
:1015A00015E07868FFF7DAFD0346002B0FD0786866
:1015B000FFF760FE0346FB60FB681846FFF7B0FCD0
:1015C0000122FB6802FA03F31846FFF76DFC10379F
:1015D000BD4680BD80B592B000AF00237B64002380
:1015E0003B644FF480737B8701237B630023FB63A1
:1015F0001DE07B8F1846FFF70BFC0346002B0DD038
:10160000786BFFF761FC0346002B07D07B8F1846F1
:10161000FFF712FC7A6C7B6B13437B647B6B5B0084
:101620007B637B8F04337B87FB6B0133FB63FB6B3B
:10163000072BDED94FF4BE70FFF7EAFB0346002B01
:101640000AD04FF4BE70FFF7F7FB7B6C43F000430A
:101650007B64FFF761FD38647B6CDBB2002B26D026
:1016600001237B630023FB631EE07A6B7B6C1340DA
:10167000002B13D0F86BFFF7A1FC7862F86BFFF733
:10168000B3FC034687F82330F86BFFF705FEF861DB
:1016900097F82320FB69786A114698477B6B5B00BB
:1016A0007B63FB6B0133FB63FB6B072BDDD97B6C2F
:1016B000002B80F29580002387F833300023FB62F3
:1016C0004FF0FF33BB62002387F833300023FB6306
:1016D0006BE0454AFB6B134450331B78FB76FB7E73
:1016E00023F0C0037B61404AFB6B134450331B78EB
:1016F0005BB2B3F1FF3F55D07B69BA6A22FA03F3BC
:1017000003F00103002B4DD0FB7E9B09FB7478692D
:10171000FFF7B0FD03461846FFF7BEFDF860FB6813
:10172000002B02D1FB7C032B3CD17B69012202FA06
:1017300003F37B63FB7C032B03D1FA6A7B6B1343BC
:10174000FB627869FFF7F4FC0346FB727A6B3B6C33
:101750001340002B02D0FB7A022B07D07A6B3B6C34
:101760001340002B1ED1FB7A032B1BD1FB7C032BD8
:1017700010D1FB7A022B01D1032300E00223BB72BC
:10178000BB7A78691946FFF79BFC97F83330013331
:1017900087F83330FB68002B04D0FA7CFB6878694B
:1017A00011469847FB6B0133FB63FB6B032B90D90E
:1017B00097F83330002B0ED0FFF7AEFC78607A68D4
:1017C0003B6C9A4203D1002387F8333003E07B68F7
:1017D0003B64FB6ABB6297F83330002B7FF473AF36
:1017E0004837BD4680BD00BFBC23002080B483B015
:1017F00000AF78600B467B807B887A6813440022B8
:101800001A600C37BD465DF8047B704780B483B026
:1018100000AF78600B467B807B887A6813441B6836
:10182000002B14BF01230023DBB218460C37BD4642
:101830005DF8047B704700BF80B483B000AF786070
:1018400039607B68D3F804233B681340002B14BF36
:1018500001230023DBB218460C37BD465DF8047B3C
:10186000704700BF80B483B000AF786039607B6898
:101870003A68C3F808230C37BD465DF8047B70470F
:1018800080B485B000AF78607B68D3F88034FB60AB
:101890007B68FA68C3F88024FB6818461437BD4695
:1018A0005DF8047B704700BF80B483B000AF786000
:1018B0007B68D3F81835DBB218460C37BD465DF8A7
:1018C000047B704780B483B000AF78600B46FB7038
:1018D000FA787B68C3F81C250C37BD465DF8047B9D
:1018E000704700BF80B483B000AF78600B46FB70D8
:1018F000FB787A68134401221A600C37BD465DF804
:10190000047B704780B483B000AF78600B467B8067
:101910007B887A68134400221A600C37BD465DF854
:10192000047B704780B483B000AF78600B467B8047
:101930007B887A6813441B68002B14BF01230023A3
:10194000DBB218460C37BD465DF8047B704700BF1C
:1019500080B483B000AF786039607B68D3F8002230
:101960003B68DB431A407B68C3F800220C37BD4656
:101970005DF8047B704700BF80B485B000AF78602D
:101980007B68D3F88034FB607B68FA68C3F88024F6
:10199000FB6818461437BD465DF8047B704700BFEE
:1019A00080B483B000AF78607B68D3F84C351846BC
:1019B0000C37BD465DF8047B704700BF80B483B030
:1019C00000AF78607B68D3F83C3518460C37BD46CD
:1019D0005DF8047B704700BF80B582B000AF0E4851
:1019E0004FF48E71FFF702FF0C4B9B680B4A928AF3
:1019F00092B213441B78FB71084B9B8A9BB2013354
:101A00009AB2064B9A82FB7903481946FFF75AFFB0
:101A10000837BD4680BD00BF0020004014240020D0
:101A200098B500AF124BDB7D002B08D111484FF465
:101A30008471FFF7DBFE0F48FFF736FF16E00D4815
:101A40004FF48471FFF7D2FE094BDB68084A527EDF
:101A5000D2B29C180748FFF727FF03462370044BB8
:101A60005B7EDBB20133DAB2014B5A7698BD00BF20
:101A7000142400200020004080B586B000AF03464B
:101A80003960FB7101233B72FB793B743B68FB605F
:101A9000054B5B68044A126807F1080108461146C5
:101AA00098471837BD4680BD1424002080B586B005
:101AB00000AF0346FB7100233B72FB793B74094B7B
:101AC0009B68FB60074B00229A75064B5B68054AD2
